:100000000C94C3030C94EB030C94EB030C94EB03E0
:100010000C94EB030C94EB030C94EB030C94EB03A8
:100020000C94EB030C94EB030C945F070C94D10736
:100030000C94EB030C94EB030C94EB030C94EB0388
:100040000C94EB030C94EB030C94EB030C94EB0378
:100050000C94EB030C94EB030C94EB030C94DA0A72
:100060000C94EB030C94EB030C94EB030C94EB0358
:100070000C94EB030C94EB030C94EB030C94EB0348
:100080000C94240B0C94EB030C94EB030C94EB03F7
:100090000C94EB030C94EB030C94EB030C94EB0328
:1000A0000C94EB030C94EB030C94EB0300B00000F6
:1000B000A170E150964F26900F1D070C0096690025
:1000C0004AE44A0048444000806810000F99FB8FC2
:1000D00099BDBBF977D4D4DF1F1A1AFE7F5D5DFF8F
:1000E000805A0000A0A4AA0010BA3400FF5953F3AC
:1000F000FF9B9B9EFFB9B996FF9595D19FF4940FF6
:10010000FC295F91FF1838F8FF9294FFFF95D5F70F
:100110007FD5DDD7F18F81F1F788C8F779C64679A9
:1001200009FD9B090196F80082818280507162006E
:100130007756560076763700A2B77301077206002D
:100140007827500073347400775176007F55F7009C
:1001500047711000324772007364730015A2750076
:1001600061679400009F6060F4F2F6F2080B0002F1
:10017000020201000904000001020200000524003F
:1001800010010524010101042402060524060001D2
:100190000705810310004009040100020A00000065
:1001A0000705020240000007058302400000040327
:1001B000090412010002EF020140412336800001D0
:1001C0000102030141726475696E6F204C4C43005B
:1001D00041726475626F79002863292032303230B1
:1001E00020006D617873636F72646140676D61694F
:1001F0006C2E636F6D0053636F7264616D61676C29
:10020000696120004D61782000312E300043656C1B
:100210006C6F426F79006D006D004D004D006D698F
:100220006E004D616A00202D20003A20004B657958
:1002300020006D004D006D696E004D616A00202D3B
:1002400020003A20004B65792000202D20004B65CE
:10025000793A2000D5F08D14A1C881CFD9F1AF2013
:100260000006011501260137014A015D017201886E
:10027000019F01B801D201EE0101020408102040E3
:100280008000000000003E5B4F5B3E3E6B4F6B3ECC
:100290001C3E7C3E1C183C7E3C181C577D571C1C89
:1002A0005E7F5E1C00183C1800FFE7C3E7FF0018E4
:1002B000241800FFE7DBE7FF30483A060E262979CD
:1002C0002926407F050507407F05253F5A3CE73C2E
:1002D0005A7F3E1C1C08081C1C3E7F14227F2214DF
:1002E0005F5F005F5F06097F017F006689956A6036
:1002F0006060606094A2FFA29408047E040810204D
:100300007E201008082A1C08081C2A08081E101045
:1003100010100C1E0C1E0C30383E3830060E3E0EEF
:1003200006000000000000005F000000070007005A
:10033000147F147F14242A7F2A1223130864623640
:10034000495620500008070300001C2241000041CC
:10035000221C002A1C7F1C2A08083E080800807006
:100360003000080808080800006060002010080439
:10037000023E5149453E00427F400072494949468C
:100380002141494D331814127F1027454545393C0A
:100390004A494931412111090736494949364649F7
:1003A00049291E0000140000004034000000081419
:1003B0002241141414141400412214080201590992
:1003C000063E415D594E7C1211127C7F49494936E7
:1003D0003E414141227F4141413E7F494949417F60
:1003E000090909013E414151737F0808087F004116
:1003F0007F41002040413F017F081422417F40405F
:1004000040407F021C027F7F0408107F3E41414133
:100410003E7F090909063E4151215E7F091929469F
:10042000264949493203017F01033F4040403F1FB5
:100430002040201F3F4038403F63140814630304EA
:100440007804036159494D43007F4141410204084A
:100450001020004141417F0402010204404040401D
:1004600040000307080020545478407F2844443853
:100470003844444428384444287F3854545418009D
:10048000087E090218A4A49C787F0804047800441C
:100490007D40002040403D007F1028440000417F07
:1004A00040007C047804787C080404783844444490
:1004B00038FC1824241818242418FC7C0804040888
:1004C000485454542404043F44243C4040207C1CA1
:1004D0002040201C3C4030403C44281028444C9094
:1004E00090907C4464544C440008364100000077EE
:1004F0000000004136080002010204023C262326C7
:100500003C1EA1A161123A4040207A3854545559FA
:100510002155557941215454784121555478402032
:10052000545579400C1E527212395555555939544B
:1005300054545939555454580000457C41000245E3
:100540007D420001457C40F0292429F0F02825282F
:10055000F07C545545002054547C547C0A097F4952
:1005600032494949323248484832324A4848303A9A
:100570004141217A3A42402078009DA0A07D394433
:100580004444393D4040403D3C24FF2424487E49BA
:1005900043662B2FFC2F2BFF0929F620C0887E09EC
:1005A0000320545479410000447D413048484A3288
:1005B000384040227A007A0A0A727D0D19317D2670
:1005C00029292F28262929292630484D4020380856
:1005D00008080808080808382F10C8ACBA2F1028D7
:1005E00034FA00007B000008142A142222142A1472
:1005F000089500220095AA005500AAAA55AA55AA56
:10060000000000FF00101010FF00141414FF001071
:1006100010FF00FF1010F010F0141414FC0014145C
:10062000F700FF0000FF00FF1414F404FC1414177B
:10063000101F10101F101F1414141F00101010F0A2
:10064000000000001F101010101F10101010F010EC
:10065000000000FF101010101010101010FF1000FC
:100660000000FF140000FF00FF00001F1017000033
:10067000FC04F414141710171414F404F40000FF0D
:1006800000F714141414141414F700F714141417A6
:100690001410101F101F141414F4141010F010F084
:1006A00000001F101F0000001F14000000FC1400B9
:1006B00000F010F01010FF10FF141414FF141010AD
:1006C000101F00000000F010FFFFFFFFFFF0F0F030
:1006D000F0F0FFFFFF0000000000FFFF0F0F0F0F03
:1006E0000F38444438447C2A2A3E147E020206060F
:1006F000027E027E0263554941633844443C044013
:100700007E201E2006027E020299A5E7A5991C2ADA
:10071000492A1C4C7201724C304A4D4D3030487899
:100720004830BC625A463D3E494949007E010101BC
:100730007E2A2A2A2A2A44445F444440514A44409B
:1007400040444A51400000FF0103E080FF000008E0
:10075000086B6B083612362436060F090F060000A8
:1007600018180000001010003040FF0101001F01A8
:10077000011E00191D1712003C3C3C3C000000000B
:100780000000551F3C1F11241FBECFEFDAE0DEBF73
:10079000CDBF11E0A0E0B1E0E6ECF9E402C00590C5
:1007A0000D92AA3BB107D9F727E0AAEBB1E001C04F
:1007B0001D92A032B207E1F713E0C2ECD3E004C00F
:1007C0002197FE010E94BB22C13CD107C9F70E94BC
:1007D000B41A0C94D6240C9400004091D00150918E
:1007E000D1012091CE013091CF0142175307B4F4CB
:1007F0009091E8009570E1F39091E80092FD19C0A6
:100800008093F1008091D0019091D10101968F7376
:100810009927892B19F48EEF8093E8008091D001FD
:100820009091D10101969093D1018093D00181E004
:10083000089580E00895CF92DF92EF92FF920F9398
:100840001F93CF93DF931F92CDB7DEB7182F062FDC
:10085000E42E862F880F8E5F99830E94ED0383E03C
:100860000E94ED03F12EC12E9981D92E8C2D8F1966
:10087000801798F4F601E7FE02C0849101C08081E0
:100880000E94ED03182F80E00E94ED038123FFEF0B
:10089000CF1ADF0A8111EACF01C081E00F90DF910A
:1008A000CF911F910F91FF90EF90DF90CF9008951F
:1008B000DF92EF92FF920F931F93CF93DF93D82E87
:1008C0008A017B01E40EF51EEB01CE15DF0571F008
:1008D000D7FE03C0FE01849101C088810E94ED0310
:1008E00021968111F2CF8FEF9FEF01C0C801DF91F8
:1008F000CF911F910F91FF90EF90DF90089561507D
:1009000030F02091F100FC0120830196F8CF289867
:1009100084E68093EB010895CF92DF92EF92FF92ED
:100920000F931F93CF93DF936C017A018B01C0E08B
:10093000D0E0CE15DF0589F0D8016D918D01D6018B
:10094000ED91FC910190F081E02DC6010995892B74
:1009500011F47E0102C02196ECCFC701DF91CF9147
:100960001F910F91FF90EF90DF90CF900895CF935C
:10097000DF931F92CDB7DEB76983DC01ED91FC9167
:100980000280F381E02D41E050E0BE016F5F7F4FB8
:1009900009950F90DF91CF91089583E08093E9004E
:1009A0008091F200882319F08AE38093E80008958B
:1009B000FC018485958597FD0BC09FB7F89482E074
:1009C0008093E9008091F2009FBF90E00196089526
:1009D0009FB7F89482E08093E9008091F2009FBF76
:1009E00090E008953FB7F8948091CA019091CB01AF
:1009F000A091CC01B091CD0126B5A89B05C02F3F99
:100A000019F00196A11DB11D3FBFBA2FA92F982F34
:100A10008827820F911DA11DB11DBC01CD0142E0AF
:100A2000660F771F881F991F4A95D1F708958F92F7
:100A30009F92AF92BF92CF92DF92EF92FF920F936D
:100A40001F93CF93DF938C016B0198E0E92EF12C7B
:100A5000E42FE695E695E695F0E0CA0187709927C0
:100A6000892BC1F5D8011696CD91DC911797C60157
:100A70009927BE010E949322D80150964D915C9116
:100A80005197992714966D917C911597452B91F468
:100A9000EC9FA001ED9F500DFC9F500D1124840F81
:100AA000951FFB01E80FF91FC22FC09520812C2351
:100AB000208332C0EC9FA001ED9F500DFC9F500D94
:100AC0001124840F951FFB01E80FF91FC081C22B71
:100AD000C08322C0C22FD0E04770A42EB12C4F019A
:100AE00083E0880C991C8A95E1F79E0101C0220FD2
:100AF0004A95EAF7A401B601C8010E941705C7018B
:100B00008A199B0902C0D595C7958A95E2F72C2FC3
:100B1000A401485F5F4F9CCFDF91CF911F910F9150
:100B2000FF90EF90DF90CF90BF90AF909F908F900D
:100B300008958F929F92AF92BF92CF92DF92EF92E1
:100B4000FF921F93CF93DF93EC016A3061F48C85A1
:100B50009D859B878A872B898E859F85820F911D16
:100B60009F878E875EC0AA84BB84693031F489E098
:100B7000A80EB11CBB86AA8654C0EE84FF849DEFEC
:100B8000A9169FEFB90654F48A8990E004962A8545
:100B90003B85820F931F9B878A8743C08E819F81ED
:100BA000A816B9068CF78DEFE8168FEFF80664F3F8
:100BB00088859985E816F9063CF7603208F46FE7F6
:100BC00080EE860F9FE9960F9A3118F49FEFE91A8D
:100BD000F90A8C3011F08B3119F49FEFE91AF90AF8
:100BE000869594E0899F60011124812C912C162F09
:100BF0001170F401EC0DFD1DE455FF4F249111110E
:100C000022952F70B4016A0D7B1DA701CE010E94B1
:100C100017058FEF881A980A94E08916910449F70E
:100C2000B3CF81E090E0DF91CF911F91FF90EF90E3
:100C3000DF90CF90BF90AF909F908F90089580915C
:100C4000BE01E091BC01F091BD01882349F0CF01C4
:100C500002969093BD018093BC0185919491089573
:100C6000CF0102969093BD018093BC018081918158
:100C70000895CF92DF92EF92FF920F931F93CF933D
:100C8000DF930E941F06811520E8920761F480918E
:100C900071008D7F80937100109291004698479863
:100CA0001092D8018BC021E02093D801813020E838
:100CB000920751F48091BA019091BB019093BD01CC
:100CC0008093BC010E941F0697FD05C02091D601AC
:100CD000222309F43FC02091D70121113BC021E01C
:100CE0002093BF01EC01DF77209769F481E08093C6
:100CF000C00146983FE9C32E3FE0D32EE12CF12CF2
:100D0000CAEFD0E014C08E0120E030E060E472E46D
:100D10008FE090E0A90198010E945D2169017A01AC
:100D200081E0C81AD108E108F1081092C001E091F1
:100D30004B02F0914C020995811103C081E0809330
:100D4000C0018091BF018823B9F18091C001811158
:100D500033C003C01092BF01C5CF46992DC0479A3A
:100D60000E941F06009771F09C01DE010E94D521B0
:100D7000DC01CB0129E0B595A795979587952A9534
:100D8000D1F703C08FEF9FEFDC01109290002AE0B3
:100D900020939100D0929900C09298008093C10155
:100DA0009093C201A093C301B093C40180917100DC
:100DB00082608093710002C04798D2CFDF91CF91BB
:100DC0001F910F91FF90EF90DF90CF9008950F93B8
:100DD0001F93CF93DF931F92CDB7DEB782E0898355
:100DE00042E450E06CE671E080E80E9458040E9402
:100DF000A01ADC0112960D911C9113970115110593
:100E000069F0D801ED91FC910280F381E02DBE01E3
:100E10006F5F7F4FC801099597FF07C089810F90C9
:100E2000DF91CF911F910F910895F80100851185F1
:100E3000E5CF0E948F1A90E00895CF93DF931F9221
:100E4000CDB7DEB7FC018485958597FD05C02FEFF2
:100E50003FEF358724870BC0CE0101960E94651AAB
:100E6000019719F4898190E002C08FEF9FEF0F90F6
:100E7000DF91CF9108950F931F93CF93DF931F922C
:100E8000CDB7DEB78C01FC018485958597FF0EC038
:100E9000CE0101960E94651A019719F4298130E06C
:100EA00002C02FEF3FEFF80135872487F8018485D2
:100EB00095850F90DF91CF911F910F9108951F920B
:100EC0000F920FB60F9211248F939F938091E100A0
:100ED0009091E100937F9093E10083FF0FC0109207
:100EE000E90091E09093EB001092EC0092E3909374
:100EF000ED001092EC0198E09093F00082FF20C08A
:100F000093E09093E9009091F200992319F09AE30D
:100F10009093E8009091D201992339F09091D201F9
:100F200091509093D201992389F19091EB019923EB
:100F300039F09091EB0191509093EB01992341F19D
:100F400084FF10C08091E2008E7E81608093E20079
:100F50008091E1008F7E8093E1008091D4018E7EAC
:100F6000806111C080FF16C08091E2008E7E80619A
:100F70008093E2008091E1008E7E8093E100809179
:100F8000D4018E7E81608093D40104C05D9ACDCF60
:100F9000289AD6CF9F918F910F900FBE0F901F90E0
:100FA00018951F920F920FB60F921124CF92DF92D5
:100FB000EF92FF920F931F932F933F934F935F9363
:100FC0006F937F938F939F93AF93BF93EF93FF9311
:100FD000CF93DF93CDB7DEB76C97DEBFCDBF109256
:100FE000E9008091E80083FFEDC168E0CE014596FD
:100FF0000E947F0482EF8093E8008D8987FF05C0FF
:101000009091E80090FFFCCF03C09EEF9093E80022
:10101000982F907609F0C6C09E892F89188D91115E
:101020000CC0803829F48091D5018093F10002C072
:101030001092F1001092F10048C1422F50E0512B64
:10104000913051F4811141C14130510509F03DC148
:101050008091D5018D7F0BC0933061F4811135C132
:101060004130510509F031C18091D50182608093F2
:10107000D5012BC1953041F48091E80080FFFCCF71
:1010800020682093E30021C1963009F05FC0EB8C0B
:10109000FC8C1092E9001092D1011092D001123014
:1010A00091F51092CF011092CE010E94E70699E0CF
:1010B000BE016F5F7F4FDB01E92F1D92EA95E9F7D3
:1010C00099831A8391E09E8390EA98879AEF998793
:1010D0002091D0013091D101275F3F4F3C832B837A
:1010E0008D831092E9001092D1011092D001F092FC
:1010F000CF01E092CE0149E050E080E00E94580428
:101100000E94E706E2C0F092CF01E092CE010E9479
:10111000A01ADC011296ED90FC901397E114F104F3
:1011200009F4C0C0D701ED91FC910480F581E02D58
:10113000BE016B5E7F4FC7010995009719F00CF057
:10114000C4C0C7C0F701E084F184E8CF973009F448
:10115000C0C0983021F481E08093F100B6C099308E
:1011600009F0B3C0837009F0B4C0E4E1F1E081E0BC
:1011700021E036E39081992361F08093E900209388
:10118000EB0091919093EC003093ED008F5F8730EE
:1011900089F78EE78093EA001092EA008F898093A6
:1011A000EC0193C08B8D9C8D1092E9001092D101BF
:1011B0001092D0019093CF018093CE01898D81113F
:1011C00056C08E899D89913A59F4813209F081C0C7
:1011D00047E050E064E071E080E00E94580475C090
:1011E000913209F076C0833289F4888D90E0982F8F
:1011F00088272F89822BA0E0B0E080930001909394
:101200000101A0930201B09303015FC0803269F431
:101210008091E80082FFFCCF67E084E091E00E94CB
:101220007F048BEF8093E80006C0823209F04DC046
:101230008F8980930B018091D301882319F0EEEF01
:10124000FAE002C0E0E0F8E080910401909105012D
:10125000A0910601B0910701803B9440A105B10522
:1012600009F07BC080910B0180FF93C076C00E9483
:10127000A01ADC0112960D911C911397011511050E
:1012800041F1D801ED91FC910190F081E02DBE017A
:101290006B5E7F4FC8010995811117C0F801008569
:1012A0001185ECCF113009F44EC0133091F48F89C1
:1012B000882309F445C0823081F440E867E080ED7E
:1012C00091E00E941B04882321F08EEF8093E800B8
:1012D00079C081E28093EB0075C0813029F440E849
:1012E0006BE084EC91E0EDCF833099F70E94A01A77
:1012F000DC011296ED90FC9013978E010F5F1F4F4B
:101300006801E114F10479F0D701ED91FC910680B8
:10131000F781E02DB801C7010995080F111DF701EC
:10132000E084F184EECFD8011C92F60101900020F8
:10133000E9F73197BF016C197D0940E0C601C1CFC3
:101340006EEA71E002C062EB71E06115710509F2AD
:10135000FB01449150E080E840CF0FB6F894A89587
:1013600080916000886180936000109260000FBEE1
:10137000A895EE3F2AE0F20739F08091FE0A90919D
:10138000FF0A91838083A1CF1092FF0A1092FE0A78
:101390009CCFEE3F8AE0F80731F0808191819093F5
:1013A000FF0A8093FE0A87E797E7918380839BE09B
:1013B00088E10FB6F894A895809360000FBE9093D3
:1013C000600083CF6C960FB6F894DEBF0FBECDBF22
:1013D000DF91CF91FF91EF91BF91AF919F918F914D
:1013E0007F916F915F914F913F912F911F910F913D
:1013F000FF90EF90DF90CF900F900FBE0F901F9057
:101400001895DC01ED91FC91DB0114964D915C91F6
:1014100015976D917C910280F381E02D09948F9254
:101420009F92AF92BF92CF92DF92EF92FF926B01A9
:101430007C010E94F2044B015C01C114D104E1045F
:10144000F104F1F00E94F204DC01CB018819990942
:10145000AA09BB09883E9340A105B10570F321E0BC
:10146000C21AD108E108F10888EE880E83E0981EC0
:10147000A11CB11CC114D104E104F10419F7DDCFA2
:10148000FF90EF90DF90CF90BF90AF909F908F90A4
:1014900008958F929F92AF92BF92CF92DF92EF9278
:1014A000FF920F931F93CF93DF935C016B017A013F
:1014B00080910B01882309F45BC08091EC018823A3
:1014C00009F456C08091D40180FF05C08091E000EE
:1014D00082608093E000E70110E00AEF83E0882E4D
:1014E0009AE3992E2097D9F10E948F1A81110AC090
:1014F000015009F43DC061E070E080E090E00E949E
:101500000F0AF0CF282F30E0C217D3070CF48C2F2E
:101510004FB7F8948092E9009091E80095FF1DC0C4
:10152000282F30E0C21BD30BF601982F915020F0EA
:1015300081918093F100FACFC20ED31E112319F0CE
:101540009092E80009C08091E80085FD06C0909265
:10155000E80011E0209709F010E04FBFC3CF111150
:10156000C3CF5D9884E68093D2011E141F0444F01B
:1015700081E090E0F5019383828380E090E001C0F8
:10158000C701DF91CF911F910F91FF90EF90DF90F6
:10159000CF90BF90AF909F908F9008952FB7F89401
:1015A0006091C6017091C7018091C8019091C901F5
:1015B0002FBF08951F920F920FB60F9211242F93F1
:1015C0003F938F939F93AF93BF938091C601909168
:1015D000C701A091C801B091C9013091C50123E0B4
:1015E000230F2D3720F40196A11DB11D05C026E85B
:1015F000230F0296A11DB11D2093C5018093C60142
:101600009093C701A093C801B093C9018091CA010A
:101610009091CB01A091CC01B091CD010196A11D7B
:10162000B11D8093CA019093CB01A093CC01B093DC
:10163000CD01BF91AF919F918F913F912F910F90CD
:101640000FBE0F901F9018951F920F920FB60F921A
:1016500011242F933F934F935F936F937F938F93B7
:101660009F93AF93BF93EF93FF938091C1019091AC
:10167000C201A091C301B091C401892B8A2B8B2B8D
:1016800081F18091C00181110BC098B180E489275C
:1016900088B98091BF01882319F088B1805888B932
:1016A0008091C1019091C201A091C301B091C40188
:1016B000181619061A061B06B4F48091C101909100
:1016C000C201A091C301B091C4010197A109B10960
:1016D0008093C1019093C201A093C301B093C40150
:1016E00002C00E943906FF91EF91BF91AF919F9187
:1016F0008F917F916F915F914F913F912F910F90BB
:101700000FBE0F901F9018959C01E1E7F0E09081CB
:101710009D7F90831092BE01EDE3F2E0F093BD0156
:10172000E093BC01F093BB01E093BA0131832083C5
:101730007383628380E090E8958384830C943906F8
:101740002F923F924F925F926F927F928F929F92D1
:10175000AF92BF92CF92DF92EF92FF920F931F93BF
:10176000CF93DF93CDB7DEB7A1970FB6F894DEBF66
:101770000FBECDBF2091E8013091E901820F931F88
:101780008730910514F086E090E097FF02C080E07A
:1017900090E09093E9018093E80100E010E020E000
:1017A00045E06BE370E0C8010E94F7180F5F1F4F20
:1017B00000381105A1F788E1E82EF12C00E010E0D7
:1017C0009CE3292E312C2AE0422E512C612C712CC5
:1017D000F092EA06E092E906F092E806E092E70667
:1017E0003092EC062092EB062091E8013091E9015D
:1017F000200F311F2F5F3F4F4901330FAA08BB084D
:10180000B7FE26C0E091DD06F091DE060190F08182
:10181000E02D6DE28DED96E0099522273327A90191
:10182000281939094A095B0919A2CE0181966C0170
:10183000CA01B901A30192010E94B321605DF601C2
:1018400062936F01211531054105510589F715C0D6
:10185000A501940119A2CE0181966C01CA01B901BA
:10186000A30192010E94B321605DF60162936F01B2
:10187000211531054105510589F7C6010E94C81996
:101880000F5F1F4FF1E1EF0EF11C0630110509F05B
:101890009FCF8091E8019091E901892B11F421E01B
:1018A00001C020E043E166E270E080E190E00E9448
:1018B000F718A1960FB6F894DEBF0FBECDBFDF912B
:1018C000CF911F910F91FF90EF90DF90CF90BF903D
:1018D000AF909F908F907F906F905F904F903F90D0
:1018E0002F900895CF92DF92EF92FF921F93CF93A4
:1018F000DF93C82F6B018091D9019091DA016CE0E0
:1019000070E00E949322182FC7300CF0C6E0C7FD8C
:10191000C0E0E12CF12C0C2E000CDD0BCE15DF0508
:101920008CF0C6010E94DA19F701882319F0EB5DEB
:10193000FE4F02C0E65EFE4F8081180F8FEFE81A5F
:10194000F80AECCF812FDF91CF911F91FF90EF909C
:10195000DF90CF900895CF93DF93EC01655F7F4FC9
:101960006731710518F060E671E002C06EE571E064
:10197000CE010E941514CE01DF91CF910895AF9250
:10198000BF92CF92DF92EF92FF920F931F93CF936C
:10199000DF93CDB7DEB762970FB6F894DEBF0FBE08
:1019A000CDBF082FF62E81E090E090930907809339
:1019B000080710920B0710920A078EE492E00E942B
:1019C000201A62E671E0CE0107960E9415148091FC
:1019D000D9019091DA014CE0C42ED12CB6010E94BD
:1019E000932216E0189F9001199F300D1124B90120
:1019F0006B567D4FCE0101960E940C149E01295F0B
:101A00003F4F42E050E0BE016F5F7F4FCE010D9629
:101A10000E948F18BE01635F7F4F82EF96E00E94A5
:101A2000010ACE010D960E94CF13CE0101960E94AD
:101A3000CF13CE0107960E94CF138AE492E00E9452
:101A4000201A62E671E0CE0107960E94151480917B
:101A5000D9019091DA01B6010E949322189F90015A
:101A6000199F300D1124B901635B7D4FCE010196A2
:101A70000E940C149E01295F3F4F43E050E0BE01DD
:101A80006F5F7F4FCE010D960E948F18BE01635F7E
:101A90007F4F82EF96E00E94010ACE010D960E94D0
:101AA000CF13CE0101960E94CF13CE0107960E945C
:101AB000CF130336D9F585E9E82E82E0F82E00E051
:101AC00010E096E0C92ED12C24E1A22E3AE0B32EEC
:101AD000C801B6010E949322A89E9001A99E300DD4
:101AE0001124C9010A969093090780930807B69EAE
:101AF000C001B79E900D11240D9690930B07809313
:101B00000A07B70182EF96E00E94010A0F5F1F4F9C
:101B100026E0E20EF11C0C301105D1F601E02BE0BD
:101B200044E16BE070E087E090E027C0802F612FF8
:101B30000E9487222AE0829FF0011124BF01655F85
:101B40007F4F24E1929FC001112400E02BE044E18B
:101B500007960E94EB198F2D612F0E9487222AE0A1
:101B6000829FB0011124655F7F4F24E1929FC001E5
:101B7000112401E02BE044E107960E94EB196296E4
:101B80000FB6F894DEBF0FBECDBFDF91CF911F918E
:101B90000F91FF90EF90DF90CF90BF90AF9008959E
:101BA000EF92FF920F931F93CF93DF93CDB7DEB7E2
:101BB000A4970FB6F894DEBF0FBECDBF63E671E009
:101BC000CE0101960E94151481E090E090930907E0
:101BD0008093080710920B0710920A0785E492E0A1
:101BE0000E94201A6091D9017091DA01CE01079606
:101BF0000E94AB0CCE0107960E94DA19811103C036
:101C000086E392E002C08AE392E00E94201ACE01AD
:101C100007960E94CF1382E492E00E94201A62E6A7
:101C200071E0CE010D960E9415148091D90190911A
:101C3000DA012CE0E22EF12CB7010E94932216E08B
:101C4000189F9001199F300D1124B9016B567D4FDB
:101C5000CE0107960E940C149E01235F3F4F42E085
:101C600050E0BE01695F7F4FCE0143960E948F18FE
:101C7000BE016D5E7F4F82EF96E00E94010ACE01A9
:101C800043960E94CF13CE0107960E94CF13CE0138
:101C90000D960E94CF138EE392E00E94201A62E616
:101CA00071E0CE010D960E9415148091D90190919A
:101CB000DA01B7010E949322189FB001199F700D9D
:101CC0001124635B7D4FCE0107960E940C149E0188
:101CD000235F3F4F43E050E0BE01695F7F4FCE017D
:101CE00043960E948F18BE016D5E7F4F82EF96E093
:101CF0000E94010ACE0143960E94CF13CE0107969F
:101D00000E94CF13CE010D960E94CF1310E03CE04D
:101D1000F32E06E062E671E0CE0149960E941514AA
:101D200064E372E0CE010D960E94D413BE01635F9E
:101D30007F4F812F0E94720C6F2D0E948722099F76
:101D4000B00111246B567D4FCE0143960E940C14B6
:101D50009E01275E3F4F43E050E0BE016D5E7F4F26
:101D6000CE014F960E948F18BE016F5F7F4FCE014C
:101D700007960E940C14BE01615E7F4FCE0107964C
:101D80000E944E13BC01CE0101960E94B813CE01F1
:101D900007960E94CF13CE014F960E94CF13CE011B
:101DA00043960E94CF13CE010D960E94CF13CE0111
:101DB00049960E94CF131F5F173009F0ABCF81E027
:101DC00090E090930907809308078DE090E090934E
:101DD0000B0780930A07BE016F5F7F4F82EF96E08B
:101DE0000E94010A63E671E0CE0101960E94A113F0
:101DF00010E08CE0F82E06E062E671E0CE01499634
:101E00000E94151462E372E0CE010D960E94D41375
:101E1000BE01635F7F4F812F0E94720C6F2D0E9465
:101E20008722099FB00111246B567D4FCE01439646
:101E30000E940C149E01275E3F4F43E050E0BE011C
:101E40006D5E7F4FCE014F960E948F18BE016F5F6F
:101E50007F4FCE0107960E940C14BE01615E7F4F3A
:101E6000CE0107960E944E13BC01CE0101960E943E
:101E7000B813CE0107960E94CF13CE014F960E9451
:101E8000CF13CE0143960E94CF13CE010D960E9430
:101E9000CF13CE0149960E94CF131F5F173009F070
:101EA000ABCF81E090E0909309078093080787E12A
:101EB00090E090930B0780930A07BE016F5F7F4FFE
:101EC00082EF96E00E94010ACE0101960E94CF1394
:101ED000A4960FB6F894DEBF0FBECDBFDF91CF91B1
:101EE0001F910F91FF90EF900895EF92FF920F9343
:101EF0001F93CF93DF93CDB7DEB7AA970FB6F894B1
:101F0000DEBF0FBECDBF63E671E0CE0107960E9433
:101F1000151463E671E0CE0101960E94151481E06C
:101F200090E0909309078093080710920B07109296
:101F30000A078DE292E00E94201A6091D901709107
:101F4000DA01CE010D960E94AB0CCE010D960E94D7
:101F5000DA19811103C08EE192E002C082E292E0C0
:101F60000E94201ACE010D960E94CF138AE292E0C1
:101F70000E94201A62E671E0CE0143960E94151479
:101F80008091D9019091DA012CE0E22EF12CB70179
:101F90000E94932216E0189F9001199F300D112482
:101FA000B9016B567D4FCE010D960E940C149E0117
:101FB0002D5E3F4F42E050E0BE01635F7F4FCE0198
:101FC00049960E948F18BE01675E7F4F82EF96E0B0
:101FD0000E94010ACE0149960E94CF13CE010D96B0
:101FE0000E94CF13CE0143960E94CF1386E292E067
:101FF0000E94201A62E671E0CE0143960E941514F9
:102000008091D9019091DA01B7010E949322189F23
:10201000B001199F700D1124635B7D4FCE010D96A9
:102020000E940C149E012D5E3F4F43E050E0BE0124
:10203000635F7F4FCE0149960E948F18BE01675E95
:102040007F4F82EF96E00E94010ACE0149960E94DE
:10205000CF13CE010D960E94CF13CE0143960E945E
:10206000CF1300E010E020E04EE06AE270E0C8012B
:102070000E94F7180F5F1F4F00381105A1F710E0FD
:102080009CE0F92E06E06CE172E0CE0143960E94DE
:10209000D413BE016D5E7F4F812F0E94720CE82E1B
:1020A000BE01695F7F4FCE010D960E940C148E2DEC
:1020B0006F2D0E948722099FC0011124BC01635B20
:1020C0007D4FCE010D960E944E130E94411ABC0115
:1020D000CE0107960E94B813CE010D960E94CF1331
:1020E000CE0143960E94CF1362E671E0CE014F9677
:1020F0000E9415146AE172E0CE0143960E94D41347
:10210000BE016D5E7F4F812F0E94720C6F2D0E9469
:102110008722099FC0011124BC016B567D4FCE015F
:1021200049960E940C149E01215E3F4F43E050E00F
:10213000BE01675E7F4FCE0185960E948F18BE015B
:102140006F5F7F4FCE010D960E940C14BE016B5D38
:102150007F4FCE010D960E944E13BC01CE01019619
:102160000E94B813CE010D960E94CF13CE01859622
:102170000E94CF13CE0149960E94CF13CE01439601
:102180000E94CF13CE014F960E94CF131F5F1730CE
:1021900009F079CF01E010E01093EA060093E90618
:1021A0001093E8060093E7068AE290E09093EC062D
:1021B0008093EB06BE01695F7F4F8DED96E00E9434
:1021C000010A10930907009308078DE090E09093AF
:1021D0000B0780930A07BE016F5F7F4F82EF96E087
:1021E0000E94010A63E671E0CE0107960E94A113E6
:1021F00063E671E0CE0101960E94A11310E08CE02D
:10220000F82E06E068E172E0CE0143960E94D413F6
:10221000BE016D5E7F4F812F0E94720CE82EBE01C1
:10222000695F7F4FCE010D960E940C148E2D6F2D8D
:102230000E948722099FC0011124BC01635B7D4F6E
:10224000CE010D960E944E130E94411ABC01CE0190
:1022500007960E94B813CE010D960E94CF13CE01AF
:1022600043960E94CF1362E671E0CE014F960E9422
:10227000151466E172E0CE0143960E94D413BE01AC
:102280006D5E7F4F812F0E94720C6F2D0E948722FE
:10229000099FC0011124BC016B567D4FCE014996A8
:1022A0000E940C149E01215E3F4F43E050E0BE01AE
:1022B000675E7F4FCE0185960E948F18BE016F5FCB
:1022C0007F4FCE010D960E940C14BE016B5D7F4FB7
:1022D000CE010D960E944E13BC01CE0101960E94C4
:1022E000B813CE010D960E94CF13CE0185960E94A1
:1022F000CF13CE0149960E94CF13CE0143960E9480
:10230000CF13CE014F960E94CF131F5F173009F0F5
:1023100079CF01E010E0109309070093080787E1E7
:1023200090E090930B0780930A07BE016F5F7F4F89
:1023300082EF96E00E94010A1093EA060093E906F4
:102340001093E8060093E70684E390E09093EC0690
:102350008093EB06BE01695F7F4F8DED96E00E9492
:10236000010ACE0101960E94CF13CE0107960E946A
:10237000CF13AA960FB6F894DEBF0FBECDBFDF9184
:10238000CF911F910F91FF90EF9008958F929F92A0
:10239000AF92BF92CF92EF920F931F93CF93DF93A1
:1023A00000D000D000D0CDB7DEB7182F63E671E0C3
:1023B000CE0101960E94151464E671E0CE010196EB
:1023C0000E94A11320910C01812F90E0820F911D9A
:1023D00065E070E00E94932280930C0140E02DEDB7
:1023E00032E0B42FB111BFEFF9010024B193B193E2
:1023F000B193B1930394D1F710920B0710920A078F
:102400001092090710920807049709F464C08EE639
:10241000882E912CA12CB12C80910C01950143E0C8
:10242000849F200D311D1124C9012D813E81821709
:10243000930750F429813A812115310529F0F901DA
:10244000E80FF91F208101C020E0CC24C394EE24C2
:10245000E39400E040E050E0B40182EF96E00E9497
:10246000DA148FEFA81AB80A26E0820E911C33E026
:10247000A316B10489F621E040E869E070E080E04D
:1024800090E00E94671480910C01833041F021E0BC
:1024900040E861E270E080E090E00E94671489E625
:1024A00090E09093EA068093E9069093E806809383
:1024B000E70685E090E09093EC068093EB06809130
:1024C000DB01811103C082E691E002C08EE591E05C
:1024D0000E94C81911C001E020E440E860E070E00B
:1024E00080E090E00E94EB192CE34CE762E070E0A2
:1024F00082E090E00E94EB1980910C01811107C0ED
:102500001092DA011092D9010E94750F77C08130C4
:1025100039F41092DA011092D9010E94D00D0AC04C
:10252000823071F41092DA011092D90163E683E6E9
:102530000E94BF0C60E083E690E00E94AE175EC090
:10254000833071F41092DA011092D90163E683E6C8
:102550000E94BF0C60E083E690E00E94CA154EC066
:10256000843009F04BC008E010E010930907009395
:1025700008078AE090E090930B0780930A0782E0B7
:1025800080930E078DE092E00E94201ABB24B39442
:10259000B0920E0789E092E00E94201A109309077A
:1025A000009308078EE190E090930B0780930A0751
:1025B00084E092E00E94201A86EF91E00E94201AA7
:1025C000109309070093080788E290E090930B07A7
:1025D00080930A0782EE91E00E94201A1093090767
:1025E0000093080782E390E090930B0780930A071B
:1025F00088ED91E00E94201AB0920E07CE0101965C
:102600000E94CF1326960FB6F894DEBF0FBECDBF43
:10261000DF91CF911F910F91EF90CF90BF90AF902E
:102620009F908F9008950E94B8240F931F93CF938B
:10263000DF93EC0188819981009729F02A813B8101
:102640002617370788F48B016F5F7F4F0E94EE23B8
:10265000009761F0998388831B830A832C813D81D5
:10266000232B11F4FC01108281E001C080E0DF9196
:10267000CF911F910F910895CF93DF93EC01888143
:102680009981009711F00E945623198218821D82A9
:102690001C821B821A82DF91CF910895EF92FF92E4
:1026A0000F931F93CF93DF93EC01FB0184819581FE
:1026B000E080F1800C811D81E114F104B1F00097FC
:1026C000B9F0080F191FB801CE010E941513882315
:1026D00061F0288139818C819D81B701820F931F20
:1026E0000E94CF241D830C8303C0CE010E943C13A3
:1026F000CE01DF91CF911F910F91FF90EF90089540
:10270000EF92FF920F931F93CF93DF93EC017B0126
:102710008A01BA010E941513811104C0CE010E94E2
:102720003C1307C01D830C83B701888199810E94E7
:10273000CF24CE01DF91CF911F910F91FF90EF90A9
:102740000895CF93DF93EC016115710559F0FB01FA
:1027500001900020E9F73197AF01461B570B0E940B
:10276000801302C00E943C13CE01DF91CF910895E7
:10277000CF93DF93EC01FB018617970761F060812F
:1027800071816115710529F0448155810E94801382
:1027900002C00E943C13CE01DF91CF910895FC014D
:1027A000808191810C945623EF92FF920F931F9397
:1027B000CF93DF93EC01198218821B821A821D824B
:1027C0001C826115710509F18B01CB010E9451201A
:1027D0007C01BC01CE010E941513811109C0CE01FC
:1027E000DF91CF911F910F91FF90EF900C943C13CC
:1027F000FD82EC82B80188819981DF91CF911F9190
:102800000F91FF90EF900C944A20DF91CF911F9190
:102810000F91FF90EF900895FC01118210821382B6
:102820001282158214820C94B813FC01118210825A
:1028300013821282158214826115710551F0FB0119
:1028400001900020E9F73197AF01461B570B0C941C
:10285000801308958091EA0108950895089580E015
:1028600090E00895BC0180E090E00C940F0A8FB1D5
:102870002CB193B130E02095309520743327A90115
:1028800023E0559547952A95E1F7292F30E02095CB
:102890003095207133273595279535952795242B2D
:1028A0008095807F822B08955C988EBD00000DB4CA
:1028B00007FEFDCF5C9A08951092EA013E983F987A
:1028C00008953E9A3F9A81E08093EA010895FC01C1
:1028D000840F911D18161906E4F5E038F105CCF5C2
:1028E000F7FF02C0E0E0F0E08138910514F080E8E5
:1028F00090E0382F3E1BAB0177FF02C0495F5F4F6E
:1029000083E0559547958A95E1F75695542F4427CE
:1029100057954795E40FF51FE352FD4F67707727F2
:1029200081E090E001C0880F6A95EAF7482F2223E2
:1029300049F0213071F4315020F08081842B819353
:10294000FACF08958095315020F09081982391938B
:10295000FACF08958091DD028EBDEEEDF2E0819117
:102960000DB407FEFDCF8EBD86E0ED3DF807B9F74B
:102970000DB407FEFDCF089560387105D0F44034E2
:102980005105B8F4E9E7F2E080E1849FD001A07836
:102990001124A60F4770E40FF11DE491A352BD4F1F
:1029A000222319F04C91E42B03C0E0954C91E423D1
:1029B000EC9308952F923F924F925F926F927F9285
:1029C0008F929F92AF92BF92CF92DF92EF92FF923F
:1029D0000F931F93CF93DF93CDB7DEB727970FB633
:1029E000F894DEBF0FBECDBF603871050CF06EC02D
:1029F000403451050CF06AC0FB0135E0C39EE00D88
:102A0000F11D11241E161F060CF060C08C2C912C99
:102A1000FA0138E0C39EE00DF11D11241E161F06B9
:102A20000CF054C02C2CEA8209833A0145E0249F23
:102A3000800111247F836E830F571D4F30E0FC010E
:102A40003496FC83EB83F8015490353009F4512C13
:102A5000530188E0382E50FC02C04A8001C04980F2
:102A600041100BC0FA814981F41307C056943A947F
:102A7000A80CB91C3110EFCF1DC0EE80FF808E2D49
:102A80009E81891B821590F765018C2D8A1982150C
:102A900068F4242DA601B7018B819C813D830E949F
:102AA000BC145FEFC51AD50A3D81EFCF8FEFE81A4E
:102AB000F80AE5CF3F5FEE81FF81E80DF91DFF8346
:102AC000EE830F5F1F4F363009F0BDCF27960FB64C
:102AD000F894DEBF0FBECDBFDF91CF911F910F9154
:102AE000FF90EF90DF90CF90BF90AF909F908F902E
:102AF0007F906F905F904F903F902F900895CF926E
:102B0000EF920F93CF93DF93EC016A3069F42C8D31
:102B1000888D998D38E0239F800D911D1124998F08
:102B2000888F1F8A1E8A2EC06D3061F1262F488D36
:102B3000598D6E897F89CC8CEB8C0A8D0E94DA14BA
:102B40002C8D422F50E08E899F8936E0239F800D87
:102B5000911D11249F8B8E8B2D8D222399F06AEF6E
:102B600064039001659F300D112420583F4F2817B2
:102B7000390744F4E881F9810190F081E02D6AE0A1
:102B8000CE01099581E090E0DF91CF910F91EF9018
:102B9000CF9008952F923F924F925F926F927F92C3
:102BA0008F929F92AF92BF92CF92DF92EF92FF925D
:102BB0000F931F93CF93DF93CDB7DEB72A970FB64E
:102BC000F894DEBF0FBECDBF1C01F62E83E628169B
:102BD000310409F003C121E04FE250E067E070E00A
:102BE00086EF96E00E94BC1421E047E250E067E0E7
:102BF00070E086EF96E00E94BC1421E04BE250E0CA
:102C00006BE070E086EF96E00E94BC1421E04BE29E
:102C100050E063E070E086EF96E00E94BC1444242C
:102C20004394512C00E010E0E4E0F0E0FA83E98303
:102C300038EF632E77247A944DEFE42EFF24FA9434
:102C400057E0252E312C0F5F1F4FE2E04E0E511C36
:102C5000E40CF51C4801F7E08F0E911C21E0C980BF
:102C6000DA808BE2C80ED11CA601B40186EF96E093
:102C70000E94BC145101A01AB10A21E0A601B501BD
:102C800086EF96E00E94BC1421E08BE2C82ED12C86
:102C9000E981FA81CE1ADF0AA601B40186EF96E037
:102CA0000E94BC1421E0A601B50186EF96E00E94C7
:102CB000BC146801FBE2CF0ED11C21E0A601A98063
:102CC000BA8087E0A80EB11CB50186EF96E00E949D
:102CD000BC1421E0A6016101E981FA81CE1ADF0A64
:102CE000B60186EF96E00E94BC149BE2892E912CDF
:102CF000801A910A21E0A401B50186EF96E00E94B6
:102D0000BC1421E0A401B60186EF96E00E94BC1439
:102D100089819A81081719076CF4F7FC94CF89818F
:102D20009A8101979A83898392E0690E711CE60C5F
:102D3000F71C89CF03E010E020E046E069E270E094
:102D4000C8010E94F7180F5F1F4F07301105A1F748
:102D500021E041E068E270E08DE090E00E94A5197A
:102D600021E041E06EE270E08DE090E00E94A51964
:102D700006E210E021E040E8B80180E090E00E9427
:102D800067140B5F1F4F0F331105A1F721E044E1DA
:102D900067E270E080E090E00E94F71821E044E1F3
:102DA00067E270E082E090E02A960FB6F894DEBF0A
:102DB0000FBECDBFDF91CF911F910F91FF90EF908C
:102DC000DF90CF90BF90AF909F908F907F906F904B
:102DD0005F904F903F902F900C94F71880E090E018
:102DE000892E912C8214930444F48F5FE82FF0E035
:102DF000EB5DFE4F2081920FF3CF90E0049667E0E9
:102E000070E00E9493226C018AE08C9D90018D9D60
:102E1000300D1124F9013D96FA87E987B6010D2C92
:102E2000000C880B990B0E945C2020E030E040E20F
:102E300050E40E9497202B013C019B01AC0160E013
:102E400070E08CE692E40E94E4210E9451226B83A0
:102E50007C838D839E83AB80BC8089859A85039714
:102E60009A838983E985FA853196F887EF838C0107
:102E70008F8198850817190749F02F2D44E0B50177
:102E8000C8010E94F7180F5F1F4FF2CFAB80BC80C4
:102E90009FEFA91AB90AEF2C01E010E021E041E010
:102EA000B50189859A850E94231922E041E0B50188
:102EB00089819A810E942319281439048CF4A30172
:102EC000920160E070E080E792E40E94E4210E94B9
:102ED00051222F2D41E089859A8504960E94A519DB
:102EE000F11015C0C0FE13C0A301920160E070E0B4
:102EF00084E792E40E94E4210E945122603471052B
:102F000030F421E040E880E090E00E946714E7E0C0
:102F1000CE0ED11C89859A858A5B9F4F9A878987B7
:102F20009BE0C916D1040CF479CF2A960FB6F89419
:102F3000DEBF0FBECDBFDF91CF911F910F91FF90EC
:102F4000EF90DF90CF90BF90AF909F908F907F9049
:102F50006F905F904F903F902F9008954F925F92A7
:102F60006F927F928F929F92AF92BF92CF92DF9299
:102F7000EF92FF920F931F93CF93DF93EC01562EA6
:102F80008336910509F050C001E211E0C6E2D0E0BD
:102F9000EE24E394F12C46E0D42E21E04AE6BE0173
:102FA00082E190E00E946714F092EA06E092E9065E
:102FB000F092E806E092E706CE0102979093EC06C5
:102FC0008093EB06D8016D918D012D2D6203B00128
:102FD00011246B567D4F8DED96E00E94010A2696D6
:102FE000CE33D105D1F6C2E1D0E021E043E166E283
:102FF00070E0CE010E94F7186196C938D105A9F793
:1030000080E090E0DF91CF911F910F91FF90EF90C2
:10301000DF90CF90BF90AF909F908F907F906F90F8
:103020005F904F900C94A00B81E2E82E81E0F82E87
:1030300006E210E09CE0C92ED12C21E1422E5E0177
:103040008CE0A80EB11C4E01ABE08A0E911CD7019A
:10305000ED917D012091E8013091E9018E2F820FE1
:1030600066E0680F90E00E2E000CFF0BC817D90722
:103070002CF0462F50E04C175D075CF4A816B906FB
:103080002CF0862F90E0881699061CF0CE17DF07EB
:1030900029F52E0F3F1FCE01821B930B0C96B60114
:1030A0000E9493223C01892B21F4CE17DF07B1F453
:1030B00003C0CE17DF0739F4252D42E0B80189E0BF
:1030C00090E00E94A519469CC001479C900D1124D8
:1030D000252D42E0B80109960E94A5195520B9F0A6
:1030E0000A5F1F4F0E33110509F0B1CFDF91CF9169
:1030F0001F910F91FF90EF90DF90CF90BF90AF9016
:103100009F908F907F906F905F904F90089521E0F7
:103110004CE6B80182E190E00E946714E1CF8F9203
:103120009F92AF92BF92CF92DF92EF92FF920F9356
:103130001F93CF93DF93CDB7DEB72C970FB6F894DC
:10314000DEBF0FBECDBF7C016B015A01490163E6B2
:1031500071E0CE0101960E941514F60104811581DB
:103160000A151B05C4F4BE016F5F7F4FCE010796A1
:103170000E940C14B401CE0107960E944E13BC01AC
:10318000CE0101960E94B813CE0107960E94CF137C
:103190000F5F1F4FE5CFB601CE0107960E940C14BA
:1031A000BE016F5F7F4FCE0107960E944E13BC0198
:1031B000C7010E940C14CE0107960E94CF13CE01C6
:1031C00001960E94CF13C7012C960FB6F894DEBF6C
:1031D0000FBECDBFDF91CF911F910F91FF90EF9068
:1031E000DF90CF90BF90AF909F908F900895DF9227
:1031F000EF92FF920F931F93CF93DF937C01D22E18
:103200008B01040F111DEB0177FF0EC0C0E0D0E071
:103210000BC0C417D5077CF42D2DAE01B70186EF86
:1032200096E00E94BC142196A801013411058CF38C
:1032300040E450E0EECFDF91CF911F910F91FF90CE
:10324000EF90DF9008954F925F926F927F928F92EE
:103250009F92AF92BF92CF92DF92EF92FF920F9325
:103260001F93CF93DF934C013B01C42FD0E081E04B
:1032700090E05C01AC1ABD0A442455244C1A5D0A46
:10328000440C551CC12CD12C822F8170F82E0F5F5D
:10329000122F1270CC16DD060CF046C0B7FC06C02B
:1032A000219782E0480E511CA40CB51C8FEFC81A60
:1032B000D80AC601880F991F0196A80EB91EFF20D3
:1032C000C1F04C2F440F400F2E2DB3016C1B7D0B12
:1032D000C601880D991D0E94F7184C2D440F400F10
:1032E0002E2DB3016C197D09C4018C0F9D1F0E9406
:1032F000F718112379F24C2F440F400F2E2DB301F4
:103300006C1B7D0BC4018C199D090E94F7184C2D74
:10331000440F400F2E2DB3016C197D09C4018C1B85
:103320009D0B0E94F718B6CFDF91CF911F910F919F
:10333000FF90EF90DF90CF90BF90AF909F908F90D5
:103340007F906F905F904F900895AF92BF92CF9211
:10335000DF92EF920F931F93CF936C015B01C42F09
:10336000E22E440F4F5F6C1B71090E94F71800E0BA
:1033700010E023E04C2FB501C6010E942319CF9124
:103380001F910F91EF90DF90CF90BF90AF90089575
:10339000009769F0FC0101900020E9F73197AF0137
:1033A000481B590BBC018DED96E00C948C0480E019
:1033B00090E00895FC0124813581232B49F06EE5CE
:1033C00071E0808191810E94C62421E0892B09F05F
:1033D00020E0822F0895DF92EF92FF920F931F93C8
:1033E000CF93DF93EC017B01D42E122F6034710553
:1033F00020F4202FCE010E946714B701610F711DC8
:10340000615071096034710528F4202F4D2DCE01D3
:103410000E946714202F412FB701CE010E94F71898
:10342000CE018D0D911D202F412FB7010197DF9106
:10343000CF911F910F91FF90EF90DF900C94F718B0
:103440000F931F93CF93DF938C01C0E0D0E0F8017E
:10345000EC0FFD1F6491662371F0E091F206F0918C
:10346000F3060190F081E02D82EF96E00995892B1B
:1034700011F02196ECCFCE01DF91CF911F910F91EA
:1034800008950F931F93CF93DF93EC010C811D815F
:103490000F5F1F4FB8010E941513882369F0288120
:1034A00039818C819D8162E671E0820F931F0E94B9
:1034B000CF241D830C8303C0CE010E943C13CE0198
:1034C000DF91CF911F910F910895FC018091EC0144
:1034D000811103C08FEF9FEF08959FB7F89482E0AA
:1034E0008093E9002091F20030E01216130614F4E4
:1034F00021E030E02115310559F0289884E68093C9
:10350000EB018091F10080838091F200882319F013
:103510009FBFC90108958BE68093E800F9CF2FB7CC
:10352000F89483E08093E9009091E800892F8072FD
:1035300095FF04C09091F20080E4891B2FBF08958D
:103540008091140781110DC082E08093100784E000
:1035500080931107109213071092120781E0809355
:10356000140780E197E00895CF93DF93CDB7DEB7DE
:1035700028970FB6F894DEBF0FBECDBF789484B500
:10358000826084BD84B5816084BD85B5826085BD5F
:1035900085B5816085BD80916E00816080936E00ED
:1035A00010928100809181008260809381008091DF
:1035B0008100816080938100809180008160809390
:1035C00080008091910082608093910080919100B1
:1035D0008160809391008091900081608093900041
:1035E0008091C10084608093C1008091C10082609D
:1035F0008093C1008091C10081608093C10080915F
:10360000C30081608093C3008091C000826080937A
:10361000C0008091C20081608093C20080917A00D6
:10362000846080937A0080917A00826080937A002F
:1036300080917A00816080937A0080917A0080681E
:1036400080937A001092EC011092D5011092D4016F
:103650008091D70081608093D70080EA8093D80062
:1036600089B5806189BD89B5826089BD09B400FED4
:10367000FDCF61E070E080E090E00E940F0A809151
:10368000D8008F7C80618093D8008091E000807F9B
:103690008093E0008091E1008E7E8093E1008DE0D8
:1036A0008093E200559A209AEEEFFFE7859194917E
:1036B0008B3F9C4D19F481E08093D30181EC809382
:1036C0007C0085B1806F85B9249884B1866E84B9F9
:1036D0005E9A5F988AB1806D8AB9769A6E9881B346
:1036E000806F81BB899880B38D7080BB80E58CBD75
:1036F00081E08DBD85E090E00E9432145F9A85E004
:1037000090E00E9432145E985C98E4E5F2E08DE06F
:103710008E0F94919EBD00000DB407FEFDCF319633
:103720008E13F7CF5C9A81E88093640011E01093C8
:1037300065008FEF9FEF9093FA018093F90181E28A
:103740008093FD0680E00E94C61186EF96E00E94FD
:10375000AA141092D7011092D6011093D6010E949C
:10376000CE0A6093E4017093E5018093E6019093A3
:10377000E701ACE02A2E312CB9E68B2E912C4424A3
:1037800043941CE0F8E1CF2ED12C8091FB0680936E
:10379000FC060E9437148093FB060E943714E82E23
:1037A000F12C8091E1019091E201E816F90609F00F
:1037B00055C038E0E316F10409F050C00E94CE0A6B
:1037C0002091DD013091DE014091DF015091E00157
:1037D000DC01CB01821B930BA40BB50B883B9B40F8
:1037E000A105B105D8F18091DB0184258093DB012F
:1037F0009092EA068092E9069092E8068092E706A7
:1038000025E030E03093EC062093EB06882329F086
:103810008EE591E00E94C81911C0E9E6AE2EB12CE8
:1038200020E044E065E070E0C5010E94F7183FEF3A
:10383000A31AB30A8DE6A816B10491F786EF96E0B5
:103840000E94AA144092DC010E94CE0A6093DD011E
:103850007093DE018093DF019093E0018091FC067C
:1038600083FF1AC08091FB0683FD16C00E94CE0A1A
:103870002091DD013091DE014091DF015091E001A6
:10388000DC01CB01821B930BA40BB50B883B9B4047
:10389000A105B10508F49FC28091E1019091E20178
:1038A000E816F90609F45CC2E114F10409F458C2FF
:1038B0001092E30186EA0E94541490E4E916F104A0
:1038C000E9F480910C01811106C08091D901909199
:1038D000DA01019620C0813031F48091D9019091B4
:1038E000DA01019629C08250823008F016C2209178
:1038F000D9013091DA01C901019632C020E2E21605
:10390000F104D1F580910C0181110FC08091D90192
:103910009091DA014796B6010E9493229093DA01C2
:103920008093D9010E94750FF8C1813079F480919C
:10393000D9019091DA014796B6010E9493229093A3
:10394000DA018093D9010E94D00DE7C18250823004
:1039500008F0E3C12091D9013091DA01C9010B9639
:10396000B1010E9493228093D9019093DA01682FCC
:10397000822F0E94BF0CD1C130E8E316F10449F454
:1039800080910C018150823008F0D7C181E090E035
:103990000CC080E1E816F10459F480910C018150CB
:1039A000823008F0CAC18FEF9FEF0E94A00BC5C103
:1039B00094E0E916F10409F0B0C180910C01811185
:1039C0008CC06091D9017091DA01CE0101960E94FC
:1039D000AB0CBE016F5F7F4F80E00E94720C612FC5
:1039E0000E948722E92FF0E0EE0FFF1F9F012F5961
:1039F0003D4F5901CE0101960E94CF13F5018591EB
:103A0000949198878F838091DB01811102C00E947D
:103A10006114A12CB12C512C6091D9017091DA0163
:103A2000CE0101960E94AB0CBE016F5F7F4F852DCA
:103A30000E94720C612F0E948722E92FF0E0EE0FA6
:103A4000FF1F9F012F593D4F3901CE0101960E9462
:103A5000CF13F301859194912F81388582179307B5
:103A600014F4880F991F68EE73E00E94840B609035
:103A7000D9017090DA013CE0631671041CF46BE02C
:103A800070E002C065E170E001E02BE042E1C501B9
:103A90000E94EB1986EF96E00E94AA148091D8014B
:103AA0008111FCCF8CE0681671041CF46BE070E0AF
:103AB00002C065E170E000E02BE042E1C5010E9438
:103AC000EB1986EF96E00E94AA14539492E1A90E96
:103AD000B11C27E05212A0CF1DC1813009F0BEC039
:103AE0006091D9017091DA01CE0101960E94AB0C70
:103AF000BE016F5F7F4F80E00E94720C612F0E94B9
:103B00008722E92FF0E0EE0FFF1FCF018F599D4F65
:103B10005C01CE0101960E94CF13F50125913491ED
:103B200038872F838091DB01811102C00E946114CC
:103B3000A12CB12C512C6091D9017091DA01CE01E8
:103B400001960E94AB0CBE016F5F7F4F852D0E94D6
:103B5000720C612F0E948722E92FF0E0EE0FFF1F09
:103B6000CF018F599D4F3C01CE0101960E94CF138A
:103B7000F301859194912F8138858217930714F46E
:103B8000880F991F68EE73E00E94840B6090D90142
:103B90007090DA013CE0631671041CF46BE070E095
:103BA00002C065E170E001E02BE042E1C5010E9446
:103BB000EB19B301CE0101960E94AB0CBE016F5F01
:103BC0007F4F852D0E94720C612F0E94872261E039
:103BD000892F90E00E94AE17CE0101960E94CF136C
:103BE00086EF96E00E94AA148091D8018111FCCF43
:103BF0006090D9017090DA018CE0681671041CF4B1
:103C00006BE070E002C065E170E000E02BE042E1B3
:103C1000C5010E94EB19B301CE0101960E94AB0CC5
:103C2000BE016F5F7F4F852D0E94720C612F0E9435
:103C3000872260E0892F90E00E94AE17CE010196A6
:103C40000E94CF1386EF96E00E94AA14539492E14B
:103C5000A90EB11C27E052126ECF5CC0823059F51C
:103C60008091DB01811102C00E946114E091D901B1
:103C7000F091DA01EE0FFF1FEF59FD4F85919491FE
:103C800060ED77E00E94840B61E08091D901909112
:103C9000DA010E94AE1786EF96E00E94AA14809186
:103CA000D8018111FCCF60E08091D9019091DA01B7
:103CB0000E94AE172BC0833009F03FC08091DB011A
:103CC000811102C00E946114E091D901F091DA01E2
:103CD000EE0FFF1FEF59FD4F8591949160ED77E056
:103CE0000E94840BA090D901B090DA0161E0C50177
:103CF0000E94CA1586EF96E00E94AA148091D8010E
:103D00008111FCCF60E0C5010E94CA1586EF96E0E4
:103D10000E94AA140E945C1410C038E0E316F1045B
:103D200061F40E94CE0A6093DD017093DE018093FE
:103D3000DF019093E0011092DC01F092E201E09249
:103D4000E1010E94CE0A6093E4017093E501809343
:103D5000E6019093E70186EF96E00E94AA1408C05E
:103D60000E943714811104C01092E2011092E10107
:103D70000E94CE0A2091E4013091E5014091E601D4
:103D80005091E701DC01CB01821B930BA40BB50B17
:103D900081319742A105B105B0F08091E3018425FE
:103DA0008093E301811102C086EA01C087EA0E9484
:103DB00054140E94CE0A6093E4017093E50180934D
:103DC000E6019093E70180E090E0892B09F4DDCCD7
:103DD0000E940000D4CC8091DC0181115DCD81E096
:103DE0000E94C611F092E201E092E10186EF96E0B6
:103DF0000E94AA1451CD0F931F93CF93DF93EC0130
:103E000081E090E00E94552180FF2EC08AE090E082
:103E10000E9455219FEF980F9E3F30F522E330E03E
:103E20003F8B2E8B28E330E0398F288F0BE010E09A
:103E3000E881F9810190F081E02D682FCE0109958C
:103E4000C8010E9455210F5F1F4F0131110581F7F5
:103E5000CE0104960E94AA1488EE93E0DF91CF91E0
:103E60001F910F910C943214DF91CF911F910F91FC
:103E7000089504970C94FB1ECF93DF93C5E9D2E01D
:103E80002697CE010E94CF1382E0CD34D807C1F728
:103E9000CDEDD2E02697CE010E94CF1382E0C53946
:103EA000D807C1F7DF91CF910895EDEEF1E01382CD
:103EB000128288EE93E0A0E0B0E084839583A6832D
:103EC000B78380E391E0918380838FEF9FEF9587A5
:103ED0008487E2EFF6E0138212821186128620E1D7
:103EE000238790878783108A118A128A138A148AFB
:103EF0008EE491E0918380838CE591E095838483C7
:103F0000178A168A118E108E81E0828F138E848F0D
:103F1000158E2AE234E130934C0220934B0220E0CC
:103F200030E830934A022093490246983E9A4798D7
:103F30003F9AEDEDF6E01382128222E431E0318304
:103F400020832DED32E03583248320E830E0378371
:103F5000268320E430E03187208795E0938B828BA5
:103F600015861486178616861386128681E090E0E1
:103F7000918B808B64E771E085E992E00E941514D3
:103F800066E771E08BE992E00E94151469E771E041
:103F900081EA92E00E9415146BE771E087EA92E0F3
:103FA0000E9415146EE771E08DEA92E00E941514EC
:103FB00062E771E083EB92E00E94151460E871E023
:103FC00089EB92E00E94151463E871E08FEB92E0B8
:103FD0000E94151465E871E085EC92E00E941514CA
:103FE00068E871E08BEC92E00E9415146AE871E0D9
:103FF00081ED92E00E9415146DE871E087ED92E08A
:104000000E9415146FE871E08DE492E00E9415148F
:1040100062E971E083E592E00E94151466E971E0BF
:1040200089E592E00E94151469E971E08FE592E05C
:104030000E9415146DE971E085E692E00E94151466
:1040400060EA71E08BE692E00E94151463EA71E089
:1040500081E792E00E94151467EA71E087E792E039
:104060000E9415146BEA71E08DE792E00E9415142E
:104070006FEA71E083E892E00E94151462EB71E050
:1040800089E892E00E94151466EB71E08FE892E0F7
:104090000C941514FB01DC0105900D920020E1F752
:1040A0000895FC0105900020E9F7809590958E0F0A
:1040B0009F1F0895E89409C097FB3EF49095809562
:1040C000709561957F4F8F4F9F4F9923A9F0F92FDE
:1040D00096E9BB279395F695879577956795B7955C
:1040E000F111F8CFFAF4BB0F11F460FF1BC06F5F42
:1040F0007F4F8F4F9F4F16C0882311F096E911C054
:10410000772321F09EE8872F762F05C0662371F074
:1041100096E8862F70E060E02AF09A95660F771F88
:10412000881FDAF7880F9695879597F908950E946A
:10413000AA200C941B210E940D2138F00E9414210A
:1041400020F0952311F00C9404210C940A211124E1
:104150000C944F210E942C2170F3959FC1F3950F71
:1041600050E0551F629FF001729FBB27F00DB11DFB
:10417000639FAA27F00DB11DAA1F649F6627B00D8B
:10418000A11D661F829F2227B00DA11D621F739F74
:10419000B00DA11D621F839FA00D611D221F749F82
:1041A0003327A00D611D231F849F600D211D822FC9
:1041B000762F6A2F11249F5750409AF0F1F08823F0
:1041C0004AF0EE0FFF1FBB1F661F771F881F91501D
:1041D0005040A9F79E3F510580F00C9404210C94A7
:1041E0004F215F3FE4F3983ED4F38695779567952A
:1041F000B795F795E7959F5FC1F7FE2B880F911D47
:104200009695879597F9089597F99F6780E870E0EC
:1042100060E008959FEF80EC089500240A9416163C
:10422000170618060906089500240A9412161306A4
:10423000140605060895092E0394000C11F4882332
:1042400052F0BB0F40F4BF2B11F460FF04C06F5F4E
:104250007F4F8F4F9F4F089557FD9058440F551F24
:1042600059F05F3F71F04795880F97FB991F61F0F8
:104270009F3F79F087950895121613061406551F6F
:10428000F2CF4695F1DF08C0161617061806991FDB
:10429000F1CF86957105610508940895E894BB27D0
:1042A00066277727CB0197F90895F999FECF92BD3C
:1042B00081BDF89A992780B50895052E97FB1EF4C5
:1042C00000940E94742157FD07D00E94B32107FC7F
:1042D00003D04EF40C94742150954095309521955F
:1042E0003F4F4F4F5F4F0895909580957095619522
:1042F0007F4F8F4F9F4F08952F923F924F925F9223
:104300006F927F928F929F92AF92BF92CF92DF92E5
:10431000EF92FF920F931F93CF93DF93CDB7DEB74A
:10432000CA1BDB0B0FB6F894DEBF0FBECDBF0994DE
:104330002A88398848885F846E847D848C849B8435
:10434000AA84B984C884DF80EE80FD800C811B8143
:10435000AA81B981CE0FD11D0FB6F894DEBF0FBE72
:10436000CDBFED010895A1E21A2EAA1BBB1BFD01D2
:104370000DC0AA1FBB1FEE1FFF1FA217B307E40744
:10438000F50720F0A21BB30BE40BF50B661F771F9C
:10439000881F991F1A9469F760957095809590957C
:1043A0009B01AC01BD01CF010895A29FB001B39F55
:1043B000C001A39F700D811D1124911DB29F700D2E
:1043C000811D1124911D08955058BB27AA270E94D2
:1043D000FC210C941B210E940D2138F00E94142115
:1043E00020F039F49F3F19F426F40C940A210EF4BE
:1043F000E095E7FB0C940421E92F0E942C2158F34F
:10440000BA17620773078407950720F079F4A6F5B9
:104410000C944E210EF4E0950B2EBA2FA02D0B011B
:10442000B90190010C01CA01A0011124FF27591BF9
:1044300099F0593F50F4503E68F11A16F040A22FFF
:10444000232F342F4427585FF3CF46953795279570
:10445000A795F0405395C9F77EF41F16BA0B620B6F
:10446000730B840BBAF09150A1F0FF0FBB1F661FB6
:10447000771F881FC2F70EC0BA0F621F731F841FF9
:1044800048F4879577956795B795F7959E3F08F01F
:10449000B0CF9395880F08F09927EE0F97958795E1
:1044A00008950E9458226894B1110C944F210895E8
:1044B0000E94342188F09F5798F0B92F9927B7515F
:1044C000B0F0E1F0660F771F881F991F1AF0BA95B8
:1044D000C9F714C0B13091F00E944E21B1E00895A7
:1044E0000C944E21672F782F8827B85F39F0B93F99
:1044F000CCF3869577956795B395D9F73EF490956B
:104500008095709561957F4F8F4F9F4F0895991BB0
:1045100079E004C0991F961708F0961B881F7A95BA
:10452000C9F78095089597FB072E16F4009407D0DD
:1045300077FD09D00E94A72207FC05D03EF4909594
:1045400081959F4F0895709561957F4F0895AA1B9F
:10455000BB1B51E107C0AA1FBB1FA617B70710F06E
:10456000A61BB70B881F991F5A95A9F780959095A0
:10457000BC01CD010895EE0FFF1F0590F491E02DD1
:104580000994CF93DF938230910510F482E090E09C
:10459000E0911E07F0911F0720E030E0C0E0D0E07E
:1045A000309711F14081518148175907C0F04817E1
:1045B000590761F482819381209719F09B838A8344
:1045C0002BC090931F0780931E0726C0211531052D
:1045D00019F04217530718F49A01BE01DF01EF01E9
:1045E0000280F381E02DDCCF2115310509F1281B74
:1045F000390B2430310590F412968D919C911397CC
:104600006115710521F0FB019383828304C09093AF
:104610001F0780931E07FD01329644C0FD01E20F83
:10462000F31F81939193225031092D933C933AC00B
:1046300020911C0730911D07232B41F420910F017D
:104640003091100130931D0720931C0720910D011C
:1046500030910E012115310541F42DB73EB740913F
:10466000110150911201241B350BE0911C07F091B0
:104670001D07E217F307A0F42E1B3F0B281739077D
:1046800078F0AC014E5F5F4F2417350748F04E0FAE
:104690005F1F50931D0740931C078193919302C0A5
:1046A000E0E0F0E0CF01DF91CF9108950F931F93E9
:1046B000CF93DF93009709F48CC0FC0132971382EB
:1046C000128200911E0710911F070115110581F438
:1046D00020813181820F931F20911C0730911D078B
:1046E0002817390779F5F0931D07E0931C0771C06F
:1046F000D80140E050E0AE17BF0750F412962D915C
:104700003C911397AD012115310509F1D901F3CF82
:104710009D01DA013383228360817181860F971FA7
:104720008217930769F4EC0128813981260F371F1E
:104730002E5F3F4F318320838A819B8193838283C5
:10474000452B29F4F0931F07E0931E0742C01396F0
:10475000FC93EE931297ED01499159919E01240F1C
:10476000351FE217F30771F480819181840F951F43
:10477000029611969C938E938281938113969C93BB
:104780008E931297E0E0F0E0D80112968D919C9103
:104790001397009719F0F8018C01F6CF8D919C9139
:1047A00098012E5F3F4F820F931F20911C0730917D
:1047B0001D072817390769F4309729F410921F074D
:1047C00010921E0702C01382128210931D070093DD
:1047D0001C07DF91CF911F910F910895A0E0B0E0E9
:1047E000E4EFF3E20C948021EC01009721F4CB017B
:1047F0000E94C122B8C0FC01E60FF71F9C012250A5
:104800003109E217F30708F4ACC0D9010D911C91EE
:10481000119706171707B0F00530110508F49FC06F
:10482000C80104978617970708F499C00250110928
:10483000061B170B019311936D937C93CF010E947C
:1048400056238DC05B01A01AB10A4C01800E911E47
:10485000A0911E07B0911F0740E050E0E12CF12C21
:10486000109709F44AC0A815B905D1F56D907C9050
:104870001197630182E0C80ED11CCA14DB0480F1D9
:10488000A3014A195B096A0182E0C80ED11C129685
:10489000BC9012971396AC91B5E0CB16D10440F0C2
:1048A000B282A38351834083D9016D937C930AC064
:1048B0000E5F1F4FC301800F911FF9019183808309
:1048C000EB2DFA2FE114F10431F0D7011396FC938C
:1048D000EE93129744C0F0931F07E0931E073FC06A
:1048E0008D919C9111974817590708F4AC017D01EF
:1048F00012960D90BC91A02DB3CF80911C07909182
:104900001D0788159905E1F446175707C8F48091EB
:104910000D0190910E01009741F48DB79EB7409123
:10492000110150911201841B950BE817F907C8F487
:10493000F0931D07E0931C07F901718360830FC09A
:10494000CB010E94C1227C01009759F0A801BE0151
:104950000E94BD24CE010E945623C70104C0CE018F
:1049600002C080E090E0CDB7DEB7EEE00C949C2171
:1049700081E090E0F8940C94D624FB01DC0102C0A5
:1049800001900D9241505040D8F70895FB01DC0191
:104990008D91019080190110D9F3990B0895FB01B5
:1049A000DC0101900D920020E1F7089513E0C2ECC4
:1049B000D3E004C0FE010E94BB222196C33CD10774
:0649C000C9F7F894FFCFD7
:1049C600FFFFFFFF00E100000000000001000020E3
:1049D60007800000C1808100000000020102020180
:1049E60002090207000002020102020200000000A2
:1049F600B704490A1907CD04D8041D073B07000070
:104A0600000099058C042F142E14000000007F1559
:104A16008C042F142E14FB1EFCFF0000391F4D00C2
:104A26006D00200041654E4B45594D414E50454E57
:104A3600494E46004300446200440045620045007A
:104A46004762004700416200410042620042004462
:104A56006F00526562005265004D6962004D690043
:104A6600466100536F6200536F6C004C6162004CEC
:0A4A760061005369620053690000FB
:00000001FF
