:100000000C94C3030C94EB030C94EB030C94EB03E0
:100010000C94EB030C94EB030C94EB030C94EB03A8
:100020000C94EB030C94EB030C9410170C947F17B7
:100030000C94EB030C94EB030C94EB030C94EB0388
:100040000C94EB030C94EB030C94EB030C94EB0378
:100050000C94EB030C94EB030C94EB030C94B1198C
:100060000C94EB030C94EB030C94EB030C94EB0358
:100070000C94EB030C94EB030C94EB030C94EB0348
:100080000C94FB190C94EB030C94EB030C94EB0312
:100090000C94EB030C94EB030C94EB030C94EB0328
:1000A0000C94EB030C94EB030C94EB0328632920D2
:1000B0003230323020006D617873636F726461405A
:1000C000676D61696C2E636F6D0053636F7264615D
:1000D0006D61676C696120004D61782000312E30C0
:1000E0000043656C6C6F426F79006D006D004D00D0
:1000F0004D006D696E004D616A00202D20003A2090
:10010000004B657920006D004D006D696E004D61FA
:100110006A00202D20003A20004B65792000202D18
:1001200020004B65793A200000000000003E5B4F44
:100130005B3E3E6B4F6B3E1C3E7C3E1C183C7E3C47
:10014000181C577D571C1C5E7F5E1C00183C180055
:10015000FFE7C3E7FF0018241800FFE7DBE7FF30E5
:10016000483A060E2629792926407F050507407F53
:1001700005253F5A3CE73C5A7F3E1C1C08081C1CC6
:100180003E7F14227F22145F5F005F5F06097F01BC
:100190007F006689956A606060606094A2FFA294A7
:1001A00008047E040810207E201008082A1C080875
:1001B0001C2A08081E101010100C1E0C1E0C3038C3
:1001C0003E3830060E3E0E06000000000000005FC4
:1001D00000000007000700147F147F14242A7F2AE0
:1001E00012231308646236495620500008070300A2
:1001F000001C2241000041221C002A1C7F1C2A08EE
:10020000083E080800807030000808080808000050
:1002100060600020100804023E5149453E00427FC4
:10022000400072494949462141494D331814127F13
:100230001027454545393C4A4949314121110907B3
:100240003649494936464949291E00001400000034
:100250004034000000081422411414141414004106
:1002600022140802015909063E415D594E7C1211C3
:10027000127C7F494949363E414141227F414141FB
:100280003E7F494949417F090909013E4141517376
:100290007F0808087F00417F41002040413F017FE7
:1002A000081422417F404040407F021C027F7F04AF
:1002B00008107F3E4141413E7F090909063E4151F8
:1002C000215E7F09192946264949493203017F01E8
:1002D000033F4040403F1F2040201F3F4038403FE9
:1002E000631408146303047804036159494D4300FF
:1002F0007F4141410204081020004141417F040236
:1003000001020440404040400003070800205454CC
:1003100078407F28444438384444442838444428AA
:100320007F385454541800087E090218A4A49C78FD
:100330007F0804047800447D40002040403D007F59
:100340001028440000417F40007C047804787C0839
:100350000404783844444438FC182424181824240D
:1003600018FC7C08040408485454542404043F44F2
:10037000243C4040207C1C2040201C3C4030403C21
:1003800044281028444C9090907C4464544C440081
:1003900008364100000077000000413608000201E5
:1003A0000204023C2623263C1EA1A161123A4040D1
:1003B000207A38545455592155557941215454784F
:1003C00041215554784020545579400C1E527212E8
:1003D0003955555559395454545939555454580070
:1003E00000457C410002457D420001457C40F029EA
:1003F0002429F0F0282528F07C5455450020545439
:100400007C547C0A097F493249494932324848487C
:1004100032324A4848303A4141217A3A42402078C3
:10042000009DA0A07D39444444393D4040403D3CBE
:1004300024FF2424487E4943662B2FFC2F2BFF09E1
:1004400029F620C0887E09032054547941000044D5
:100450007D413048484A32384040227A007A0A0AC0
:10046000727D0D19317D2629292F28262929292633
:1004700030484D4020380808080808080808382F78
:1004800010C8ACBA2F102834FA00007B0000081402
:100490002A142222142A14089500220095AA005535
:1004A00000AAAA55AA55AA000000FF00101010FFCC
:1004B00000141414FF001010FF00FF1010F010F0D3
:1004C000141414FC001414F700FF0000FF00FF14C4
:1004D00014F404FC141417101F10101F101F141410
:1004E000141F00101010F0000000001F101010105A
:1004F0001F10101010F010000000FF10101010104E
:1005000010101010FF10000000FF140000FF00FF8B
:1005100000001F10170000FC04F414141710171427
:1005200014F404F40000FF00F71414141414141449
:10053000F700F7141414171410101F101F141414BC
:10054000F4141010F010F000001F101F0000001F26
:1005500014000000FC140000F010F01010FF10FF59
:10056000141414FF141010101F00000000F010FFEE
:10057000FFFFFFFFF0F0F0F0F0FFFFFF00000000D2
:1005800000FFFF0F0F0F0F0F38444438447C2A2A16
:100590003E147E02020606027E027E026355494137
:1005A000633844443C04407E201E2006027E020242
:1005B00099A5E7A5991C2A492A1C4C7201724C3056
:1005C0004A4D4D303048784830BC625A463D3E492D
:1005D0004949007E0101017E2A2A2A2A2A44445FD1
:1005E000444440514A444040444A51400000FF01C5
:1005F00003E080FF000008086B6B083612362436D3
:10060000060F090F06000018180000001010003037
:1006100040FF0101001F01011E00191D1712003CBF
:100620003C3C3C000000000000B00000A170E15024
:10063000964F26900F1D070C009669004AE44A0069
:1006400048444000806810000F99FB8F9DBDBBFBA4
:1006500077D4D4DF1F1A1AFE7F5D5DFF805A000039
:10066000A0A4AA0010BA3400FF5953F3FF9B9B9E2D
:10067000FFB9B996FF9595D19FF4940FFC295F912E
:10068000FF1838F8FF9294FFFF95D5F7BFB5DDD777
:10069000F18F81F1F788C8F779C6467909FD9B0982
:1006A0000196F80082818280507162007756560070
:1006B00076763700A2B773010772060078275000DC
:1006C00073347400775176007F55F700477110003E
:1006D000324772007364730015A27500616794005D
:1006E000009F6060F4F2F6F2080B000202020000C4
:1006F0000904000001020200000524001001052485
:1007000001010104240206052406000107058103F6
:1007100010004009040100020A000000070502025F
:100720004000000705830240000004030904120191
:100730000002EF0201404123368000010102030163
:1007400041726475696E6F204C4C43004172647550
:10075000626F7900D5F08D14A1C881CFD9F1AF2097
:100760000083008B0093009C00A500AF00B900C47B
:1007700000D000DC00E900F700010204081020406E
:100780008000A01ACC1F11241FBECFEFDAE0DEBF1D
:10079000CDBF11E0A0E0B1E0E2EDF8E402C00590C9
:1007A0000D92AA3BB107D9F727E0AAEBB1E001C04F
:1007B0001D92A931B207E1F713E0C2ECD3E004C007
:1007C0002197FE010E945622C13CD107C9F70E9421
:1007D000921B0C945C240C9400008091BC01089541
:1007E000E9EEF2E080E0A0E0B8E000800EBC81110C
:1007F000012C1197A0FDFDCF0192B9F70DB408951A
:1008000080389105B0F46034710598F4E9E7F7E0B9
:1008100090E1969FD001A0781124A80F6770E60F91
:10082000F11D9491A751BD4F442321F08C91982B39
:100830009C93089590958C919823FACFDF92EF9234
:10084000FF920F931F93CF93DF937C01D22E8B01E6
:10085000040F111DEB0177FF02C0D0E0C0E0C8011A
:100860000134110514F080E490E0C817D9073CF476
:100870004D2DBE01C7010E9400042196F0CFDF91EB
:10088000CF911F910F91FF90EF90DF9008952F92DD
:100890003F924F925F926F927F928F929F92AF9210
:1008A000BF92CF92DF92EF92FF920F931F93CF935D
:1008B000DF9300D01F92CDB7DEB74C013B0150E073
:1008C00081E090E06C01C41AD50A22243324241A52
:1008D000350A220C331C44244394512C90E080E0D0
:1008E000322F31703983FF24F394F00E122F1270DF
:1008F000FFEFCF16DF0609F46DC09A0121503109D0
:100900003B832A8332E0230E311CC20CD31C5C01D2
:10091000EFEFAE1ABE0AF2E04F0E511CC40CD51C0C
:1009200029812223D1F04A81440F4F0D2E2DB3018E
:100930008A819B81681B790BC4018A0D9B1D0E94D3
:100940001E042E2D402F440DB3016A197B098A81A4
:100950009B81880D991D0E941E041123D9F04A81A4
:10096000440F4F0D2E2DB301EA81FB816E1B7F0BCF
:10097000C4018A199B090E941E042E2D402F440D8C
:10098000B3016A197B09C401EA81FB818E1B9F0BAD
:100990000E941E0481E090E042E050E0EA81FB8189
:1009A000AE16BF060CF4A4CF0F900F900F90DF91FE
:1009B000CF911F910F91FF90EF90DF90CF90BF905C
:1009C000AF909F908F907F906F905F904F903F90EF
:1009D0002F9008955B834A839ACFAF92BF92CF92B4
:1009E000DF92EF920F931F93CF936C015B01C42FA3
:1009F000E22E440F4F5F6C1B71090E941E0410E031
:100A000000E023E04C2FB501C6010E944704CF91BE
:100A10001F910F91EF90DF90CF90BF90AF9008950E
:100A2000FC018091F801882311F13FB7F89482E02E
:100A30008093E9002091F200822F90E018161906A9
:100A400014F481E090E0882339F0289844E640933C
:100A5000F7014091F1004083222339F02091F20008
:100A6000211103C02BE62093E8003FBF08958FEFCC
:100A70009FEF08952FB7F89483E08093E900909159
:100A8000E800892F807295FF04C09091F20080E405
:100A9000891B2FBF08958091EF0181110DC082E065
:100AA0008093EB0184E08093EC011092EE011092B0
:100AB000ED0181E08093EF018BEE91E0089540918C
:100AC000D3015091D4012091D1013091D20142172C
:100AD0005307B4F49091E8009570E1F39091E80029
:100AE00092FD19C08093F1008091D3019091D401BF
:100AF00001968F739927892B19F48EEF8093E80064
:100B00008091D3019091D40101969093D401809368
:100B1000D30181E0089580E00895EF92FF920F9352
:100B20001F93CF93DF93F82E192FE62E042F81E029
:100B3000860F880F0E945F0583E00E945F05CF2D1E
:100B4000D12FEC0EFD2EF11CCE15DF05B9F007FFFD
:100B500013C0FE0184910E945F05182F80E00E945F
:100B60005F05812321968111EFCFDF91CF911F91F6
:100B70000F91FF90EF9008958881EDCF81E0F5CF40
:100B8000DF92EF92FF920F931F93CF93DF93D82EB4
:100B90008A01EB017B01E40EF51ECE15DF0559F04D
:100BA000D7FE12C0FE0184910E945F05219681113B
:100BB000F4CF0FEF1FEFC801DF91CF911F910F917D
:100BC000FF90EF90DF9008958881EECF0F931F93F1
:100BD000CF93DF931F92CDB7DEB782E0898342E4E3
:100BE00050E068EE76E080E80E94C0050E944B0568
:100BF000DC0112960D911C910115110589F0D801A7
:100C0000ED91FC910280F381E02DBE016F5F7F4F7B
:100C1000C801099597FD04C0F80100851185ECCF46
:100C200089810F90DF91CF911F910F9108956150AD
:100C300030F02091F100FC0120830196F8CF289834
:100C400084E68093F7010895DB0114964D915C9141
:100C500015976D917C91DC01ED91FC910280F381FF
:100C6000E02D0994AF92BF92CF92DF92EF92FF9264
:100C70000F931F93CF93DF936C017B018B01040FC4
:100C8000151FEB015E01AE18BF08C017D10759F060
:100C90006991D601ED91FC910190F081E02DC601A2
:100CA0000995892B79F7C501DF91CF911F910F919C
:100CB000FF90EF90DF90CF90BF90AF900895CF93CB
:100CC000DF931F92CDB7DEB76983DC01ED91FC9114
:100CD0000280F381E02D41E050E0BE016F5F7F4F65
:100CE00009950F90DF91CF91089583E08093E900FB
:100CF0008091F200882319F08AE38093E800089538
:100D00000E943A0590E00895CF93DF931F92CDB7EC
:100D1000DEB7FC018485958597FD08C02FEF3FEF76
:100D2000358724870F90DF91CF910895CE010196EA
:100D30000E941005019719F4898190E0F3CF8FEF9D
:100D40009FEFF0CF0F931F93CF93DF931F92CDB7F9
:100D5000DEB78C01FC018485958597FF0BC0CE0121
:100D600001960E941005019771F4898190E0F801C5
:100D700095878487F801848595850F90DF91CF91C1
:100D80001F910F9108958FEF9FEFF1CFFC018485A4
:100D9000958597FD0BC09FB7F89482E08093E9009A
:100DA0008091F2009FBF90E0019608959FB7F8945C
:100DB00082E08093E9008091F2009FBF90E0089567
:100DC0003FB7F8948091CD019091CE01A091CF01D1
:100DD000B091D00126B5A89B05C02F3F19F0019610
:100DE000A11DB11D3FBFBA2FA92F982F8827BC0185
:100DF000CD01620F711D811D911D42E0660F771FAD
:100E0000881F991F4A95D1F708958F929F92AF92AC
:100E1000BF92CF92DF92EF92FF926B017C010E9412
:100E2000E0064B015C01C114D104E104F104B9F006
:100E30000E94E006681979098A099B09683E734097
:100E40008105910580F321E0C21AD108E108F1087B
:100E500088EE880E83E0981EA11CB11CE4CFFF90A1
:100E6000EF90DF90CF90BF90AF909F908F900895BC
:100E70008F929F92AF92BF92CF92DF92EF92FF92AA
:100E80000F931F93CF93DF936C017B018A018091B5
:100E90000B01882309F45CC08091F801882309F4D0
:100EA00057C08091D70180FF05C08091E00082602B
:100EB0008093E000E801B12C8AEFA82E93E0892E00
:100EC0002AE3922E209711F4BB20D9F10E943A0513
:100ED00081110AC0AA94AA20D9F161E070E080E0F3
:100EE00090E00E940507EECF8C171D0611F00CF064
:100EF0008C2F9FB7F8948092E9002091E80025FD9F
:100F000002C09FBFDFCF282F30E0C21BD30BF701F9
:100F1000815020F041914093F100FACFE20EF31E90
:100F2000BB2021F09092E800B12CEBCF8091E8003B
:100F300085FDE7CF9092E800BB24B394209709F396
:100F4000F3CF5D9884E68093D601101611063CF02D
:100F500081E090E0F6019383828310E000E0C80115
:100F6000DF91CF911F910F91FF90EF90DF90CF9085
:100F7000BF90AF909F908F9008952FB7F894609195
:100F8000C9017091CA018091CB019091CC012FBF12
:100F900008956F927F928F929F92AF92BF92CF925D
:100FA000DF92EF92FF920F931F93CF93DF934C0149
:100FB0007B01C22F102F98E0A92EB12C642E6694CD
:100FC00066946694712CCA0187709927892B79F5EC
:100FD000D40117962D913C91C7019927B9010E9420
:100FE0002E22269DF001279DF00D369DF00D112437
:100FF0008E0F9F1FD4011596ED91FC91E80FF91FFC
:101000002081111112C0C095C223C083DF91CF91FE
:101010001F910F91FF90EF90DF90CF90BF90AF9016
:101020009F908F907F906F900895C22BEECFD0E06D
:101030004770C42ED12C83E0660C771C8A95E1F7AB
:101040009E0101C0220F4A95EAF7012FA301B701C3
:10105000C4010E94C907A301485F5F4FC5018C19F5
:101060009D0902C0D595C7958A95E2F7A7CF5F92F3
:101070006F927F928F929F92AF92BF92CF92DF92A8
:10108000EF92FF920F931F93CF93DF93EC016A309F
:10109000F1F48D859E859C878B878C892F85388977
:1010A000820F932F911D988B8F8781E090E0DF91C5
:1010B000CF911F910F91FF90EF90DF90CF90BF9055
:1010C000AF909F908F907F906F905F900895AB84CA
:1010D000BC84693031F429E0A20EB11CBC86AB8619
:1010E000E4CF3DEFA3163FEFB3060CF45DC08F8154
:1010F0009885A816B9060CF057C0CF84D8888DEF14
:10110000C8168FEFD8060CF44FC089859A85C8168B
:10111000D9060CF049C0603208F46FE780EE860F04
:101120009FE9960F9A3118F49FEFC91AD90A8C30AB
:1011300011F08B3119F42FEFC21AD20A869534E0E0
:10114000839FC00111249C01285D394F7901912CA6
:10115000812C162F1170F701E80DF91D5490111113
:101160002DC0352D3F70532E3501680C791C8C81B4
:10117000882361F001E089899A89892B09F000E0D0
:101180002FE0A601B301CE010E94C9070989252DD0
:10119000A601B301CE010E94C9078FEF881A980AF1
:1011A00094E089169104B9F68B8990E004962B851A
:1011B0003C85820F931F9C878B8777CF52948FE05B
:1011C0005822D2CF2091C101E091BF01F091C0011E
:1011D000CF0102969093C0018093BF01222319F0A2
:1011E000859194910895808191810895CF92DF92A5
:1011F000EF92FF92CF93DF930E94E208811520E8DF
:10120000920791F4809171008D7F8093710010920C
:101210009100469847981092DB01DF91CF91FF90A3
:10122000EF90DF90CF90089521E02093DB01813093
:1012300020E8920751F48091BD019091BE019093F6
:10124000C0018093BF010E94E20897FD05C0209174
:10125000D901222309F454C02091DA01211150C090
:1012600021E02093C201EC01DF77209709F04BC009
:1012700081E08093C30146983FE9C32E3FE0D32E1F
:10128000E12CF12CCAEFD0E0E0915702F091580226
:101290000995811103C081E08093C3018091C2014F
:1012A000882329F08091C301882309F43FC047981F
:1012B0000E94E2080097F1F19C01DE010E9470217A
:1012C000DC01CB0129E0B595A795979587952A95DF
:1012D000D1F7109290002AE020939100D0929900CB
:1012E000C09298008093C4019093C501A093C60159
:1012F000B093C701809171008260809371008DCF9F
:101300001092C201B0CF9E0150E040E060E472E470
:101310008FE090E00E94F82069017A0181E0C81A0C
:10132000D108E108F1081092C301AECF4699BFCFB2
:10133000479ABECF8FEF9FEFDC01CBCF9C01E1E757
:10134000F0E090819D7F90831092C101E9E4F2E08A
:10135000F093C001E093BF01F093BE01E093BD01A3
:10136000318320837383628380E090E89583848354
:101370000C94F608BC0190E080E00C9405078FB156
:101380008095807F669B88601C9B846008958EBDDD
:1013900000000DB407FEFDCF08951092BC013E98E9
:1013A0003F9808953E9A3F9A81E08093BC0108954A
:1013B000480F592F511D4138510514F040E850E0B5
:1013C000481BFB0177FD379633E0F595E7953A9595
:1013D000E1F7F695FE2FEE27F795E795E80FF91F51
:1013E000E751FD4F6770772781E090E001C0880FDB
:1013F0006A95EAF7382F213041F4415078F0819115
:10140000DF011197832B8C93F8CF8095415030F0FA
:101410009191DF01119798239C93F8CF0895CF9273
:10142000DF92EF92FF920F93CF93DF936C017B01DA
:10143000C42FD22F6034710524F4202FC6010E94DE
:10144000D809B7016D0F711D6150710960347105C4
:101450002CF4202F4C2FC6010E94D809202F4D2F8D
:10146000B701C6010E941E04C6018C0F911D202FDA
:101470004D2FB7010197DF91CF910F91FF90EF9022
:10148000DF90CF900C941E042F923F924F925F9268
:101490006F927F928F929F92AF92BF92CF92DF9284
:1014A000EF92FF920F931F93CF93DF93CDB7DEB7E9
:1014B00029970FB6F894DEBF0FBECDBF6038710517
:1014C0000CF075C0403451050CF071C035E0CB0113
:1014D000C39E800D911D1124181619060CF067C0CB
:1014E000D12CC601E3E0880F991FEA95E1F7840F3C
:1014F000951F181619060CF05AC0EB820A835F83F9
:101500004E83239F90011124C901885D9E4F3C01A9
:1015100079876887312C2601F3018491F5E03F1229
:1015200001C080E08E809F8028E02983E82FF0E0D2
:10153000FD83EC832A8080FF2B80211004C0FB8177
:101540002A81F217E1F010E000E040165106B9F0F0
:10155000A884B984A00EB11EF12CE12CE414F5048A
:1015600059F0B701680D791D422DC5010E94000494
:101570003FEFE31AF30AF2CF0F5F1F4FE6CF8C81E4
:101580009D81959587959981915099838C0C9D1C8F
:101590009111CCCF3394EFEF6E1A7E0A28853985EE
:1015A0002C0D3D1D3987288736E03312B5CF29969B
:1015B0000FB6F894DEBF0FBECDBFDF91CF911F9164
:1015C0000F91FF90EF90DF90CF90BF90AF909F90E2
:1015D0008F907F906F905F904F903F902F900895E5
:1015E000CF92EF920F93CF93DF93EC016A30A9F47F
:1015F0008D8998E0899F9001112489899A89820FA9
:10160000931F9A8B898B188A1F8681E090E0DF9167
:10161000CF910F91EF90CF9008956D30B1F3262FB9
:1016200049895A896F857889CD88EC880B890E9411
:10163000440A2D89422F50E08F85988936E0239FF8
:10164000800D911D1124988B8F872E892223E9F21A
:101650006AEF64039001659F300D112420583F4FBD
:101660002817390794F6E881F9810190F081E02D7F
:101670006AE0CE010995C9CF0F931F93CF93DF93F3
:101680008C01D0E0C0E0F801EC0FFD1F64916623EF
:1016900041F08EEF96E00E94F00A892B11F021961E
:1016A000F2CFCE01DF91CF911F910F910895089550
:1016B000089590E080E008952F923F924F925F92BC
:1016C0006F927F928F929F92AF92BF92CF92DF9252
:1016D000EF92FF920F931F93CF93DF93CDB7DEB7B7
:1016E0002A970FB6F894DEBF0FBECDBF6C01F62E61
:1016F00080E090E023E6C216D10409F0FBC041E08F
:101700006FE270E087E090E00E94000441E067E251
:1017100070E087E090E00E94000441E06BE270E03E
:101720008BE090E00E94000441E06BE270E083E017
:1017300090E00E94000444244394512C10E000E007
:1017400084E090E09A83898338EF632E77247A943B
:101750004DEFE42EFF24FA9457E0252E312C0F5F35
:101760001F4F82E0480E511CE40CF51C480197E025
:10177000890E911C41E0C980DA802BE2C20ED11C97
:10178000B601C4010E9400045101A01AB10A41E04F
:10179000B601C5010E94000441E08BE2C82ED12CA5
:1017A00089819A81C81AD90AB601C4010E9400042D
:1017B00041E0B601C5010E94000468019BE2C90E28
:1017C000D11C41E0B601A980BA8027E0A20EB11C6D
:1017D000C5010E94000441E0B601610189819A813E
:1017E000C81AD90AC6010E9400049BE2892E912CD6
:1017F000801A910A41E0B401C5010E94000441E051
:10180000B401C6010E94000429813A81021713071E
:101810000CF462C083E090E09A83898320E046E084
:1018200069E270E089819A810E941E0429813A81CF
:101830002F5F3F4F3A8329832730310579F721E025
:1018400041E068E270E08DE090E00E94ED0421E06C
:1018500041E06EE270E08DE090E00E94ED0486E2EF
:1018600090E09A83898321E040E869817A8190E061
:1018700080E00E94D80929813A812B5F3F4F3A834B
:1018800029832F33310579F721E044E167E270E0E5
:1018900090E080E00E941E0421E044E167E270E0F5
:1018A00082E090E02A960FB6F894DEBF0FBECDBF5F
:1018B000DF91CF911F910F91FF90EF90DF90CF902C
:1018C000BF90AF909F908F907F906F905F904F9060
:1018D0003F902F900C941E04F7FC41CF29813A8150
:1018E000215031093A83298332E0630E711CE60CE2
:1018F000F71C35CF292F30E03A8329832C153D057D
:1019000044F48F5FE82FF0E0E25EFE4F2081920FFB
:10191000F1CF90E0049667E070E00E942E229A8753
:1019200089878AE029853A85829F1001839F300C40
:1019300011243DE0230E311C29853A85B901330F6E
:10194000880B990B0E94F71F20E030E040E250E442
:101950000E9432204B015C01AC019B0160E070E011
:101960008CE692E40E947F210E94EC212B017E8371
:101970006D83C10103979C838B8391012F5F3F4F40
:1019800038872F838C018F8198858017910751F0BC
:101990002F2D44E06D817E81C8010E941E040F5FDF
:1019A0001F4FF1CF9FEF491A590AEF2C01E010E0C9
:1019B00021E041E0B201C1010E94470422E041E080
:1019C000B2018B819C810E94470429813A81C21611
:1019D000D30684F4A501940160E070E080E792E40E
:1019E0000E947F210E94EC212F2D41E0C10104962D
:1019F0000E94ED04F11016C0398530FF13C0A50117
:101A0000940160E070E084E792E40E947F210E94EC
:101A1000EC216034710530F421E040E890E080E092
:101A20000E94D80989859A8507969A87898796E4BE
:101A3000290E311C29853A852B3031050CF47CCFD9
:101A40002A960FB6F894DEBF0FBECDBFDF91CF91BF
:101A50001F910F91FF90EF90DF90CF90BF90AF90CC
:101A60009F908F907F906F905F904F903F902F90BE
:101A70000895FC0124813581232B49F06EE571E046
:101A8000808191810E944C2421E0892B09F020E083
:101A9000822F0895CF92DF92EF92FF920F931F93C0
:101AA000CF93E82E6B018091DC019091DD016CE019
:101AB00070E00E942E22C82F10E000E00E2C000CD7
:101AC000FF08E016F10684F0C6010E94390DF80106
:101AD000882339F0E25EFE4F8081C80F0F5F1F4FF1
:101AE000F0CFED5EFE4FF8CF8C2FCF911F910F916D
:101AF000FF90EF90DF90CF9008958F929F92AF92DA
:101B0000BF920F931F93CF93DF93CDB7DEB7A1970B
:101B10000FB6F894DEBF0FBECDBF19A2423008F455
:101B20004AE08E010F5D1F4F842E912CB12CA12C09
:101B3000A50194010E944E21E62FB901CA01EA30A5
:101B400044F5E05DD801EE938D01232B242B252B4A
:101B500079F790E080E0109769F0FD010190002096
:101B6000E9F73197AF014A1B5B0BBD0189EE96E0A7
:101B70000E943206A1960FB6F894DEBF0FBECDBF0D
:101B8000DF91CF911F910F91BF90AF909F908F9059
:101B90000895E95CD7CFAF92BF92CF92DF92EF92D8
:101BA000FF920F931F93CF93DF932091BA0130914F
:101BB000BB01820F931F8730910514F086E090E0FF
:101BC00097FF02C090E080E09093BB018093BA0140
:101BD000D0E0C0E020E045E06BE370E0CE010E9481
:101BE0001E042196C038D105A9F708E110E0D0E025
:101BF000C0E08CE3A82EB12C1093F7060093F606F4
:101C00001093F5060093F406B092F906A092F80638
:101C1000C090BA01D090BB01CC0EDD1E8FEFC81A68
:101C2000D80A0D2C000CEE08FF084AE0C701B601E7
:101C3000F7FE0DC06DE289EE96E00E943708662738
:101C40007727CB016C197D098E099F094AE00E9414
:101C50007D0D21960F5E1F4FC630D10569F680912C
:101C6000BA019091BB0121E0892B09F020E043E10A
:101C700066E270E080E190E0DF91CF911F910F91DB
:101C8000FF90EF90DF90CF90BF90AF900C941E0428
:101C90004F925F926F927F928F929F92AF92BF927C
:101CA000CF92DF92EF92FF920F931F93CF93DF9328
:101CB000EC01562E8336910509F050C00AE111E07F
:101CC000C6E2D0E0EE24E394F12C46E0D42E21E0ED
:101CD0004AE6BE0182E190E00E94D809F092F70640
:101CE000E092F606F092F506E092F406CE01029735
:101CF0009093F9068093F806F80161918F01FD2D0C
:101D00006F02B00111246F557D4F89EE96E00E945D
:101D100024062696CE33D105D1F6C2E1D0E021E0EB
:101D200043E166E270E0CE010E941E046196C9386C
:101D3000D105A9F790E080E0DF91CF911F910F913D
:101D4000FF90EF90DF90CF90BF90AF909F908F90DB
:101D50007F906F905F904F900C94CB0D8AE1E82EAE
:101D600081E0F82E06E210E09CE0692E712C21E162
:101D7000422E5E018CE0A80EB11C4E01EBE08E0EEF
:101D8000911CF70121917F014091BA015091BB0153
:101D9000822F840F66E0680F90E0022E000C330B58
:101DA000C817D9071CF06C171D0654F4A816B906FD
:101DB00024F06815190409F01CF42C173D0729F5C7
:101DC000420F531FCE01841B950B0C96B3010E944A
:101DD0002E226C01892B59F42C173D07B1F4252DC7
:101DE00042E0B80189E090E00E94ED0403C02C17A6
:101DF0003D07A9F34C9CC0014D9C900D1124252D4D
:101E000042E0B80109960E94ED04511007C021E09C
:101E10004CE6B80182E190E00E94D8090A5F1F4FAA
:101E20000E33110509F0ADCFDF91CF911F910F91C6
:101E3000FF90EF90DF90CF90BF90AF909F908F90EA
:101E40007F906F905F904F900895FC01019000206B
:101E5000E9F73197AF01481B590BBC0189EE96E0B9
:101E60000C9432060E943E240F931F93CF93DF936E
:101E7000EC0188819981009759F02A813B812617CE
:101E8000370730F081E0DF91CF911F910F910895D6
:101E90008B016F5F7F4F0E948123009759F09983D8
:101EA00088831B830A832C813D81232B59F7FC01F6
:101EB0001082E8CF80E0E7CFCF93DF93EC018881F9
:101EC0009981009711F00E94F822198218821D82D0
:101ED0001C821B821A82DF91CF9108950F931F936A
:101EE000CF93DF93EC010C811D810F5F1F4FB80171
:101EF0000E94340F882391F0288139818C819D8143
:101F000060E671E0820F931F0E9455241D830C83AD
:101F1000CE01DF91CF911F910F910895CE010E94C4
:101F20005C0FF6CFEF92FF920F931F93CF93DF9347
:101F3000EC01FB01E080F180E114F10411F1048176
:101F4000158101151105A9F08C819D81080F191FBC
:101F5000B801CE010E94340F882399F0288139817D
:101F60008C819D81B701820F931F0E9455241D8390
:101F70000C83CE01DF91CF911F910F91FF90EF90D5
:101F80000895CE010E945C0FF4CFEF92FF920F9361
:101F90001F93CF93DF93EC017B018A01BA010E946A
:101FA000340F81110BC0CE010E945C0FCE01DF9176
:101FB000CF911F910F91FF90EF9008951D830C8397
:101FC000B701888199810E945524F0CFFB010190CF
:101FD0000020E9F73197AF01461B570B0C94C50F52
:101FE000CF93DF93EC01FB018617970749F06081DF
:101FF00071816115710541F0448155810E94C50FC1
:10200000CE01DF91CF9108950E945C0FF9CFFC01C2
:102010001182108213821282158214820C94F00FA6
:10202000FC01118210821382128215821482FB013C
:1020300001900020E9F73197AF01461B570B0C9434
:10204000C50FFC0180819181009711F00C94F8225A
:1020500008958F929F92AF92BF92CF92DF92EF92AC
:10206000FF920F931F93CF93DF93CDB7DEB72C97DB
:102070000FB6F894DEBF0FBECDBF7C016B014A01E5
:10208000590161E671E0CE0107960E941010F60139
:102090000481158108151905C4F4BE01695F7F4FDD
:1020A000CE0101960E940710B501CE0101960E9453
:1020B000920FBC01CE0107960E94F00FCE0101964F
:1020C0000E9421100F5F1F4FE5CFB601CE01019690
:1020D0000E940710BE01695F7F4FCE0101960E94EA
:1020E000920FBC01C7010E940710CE0101960E9409
:1020F0002110CE0107960E942110C7012C960FB621
:10210000F894DEBF0FBECDBFDF91CF911F910F912D
:10211000FF90EF90DF90CF90BF90AF909F908F9007
:102120000895AF92BF92CF92DF92EF92FF920F93FA
:102130001F93CF93DF93CDB7DEB762970FB6F894B6
:10214000DEBF0FBECDBF082FF62E81E090E090934A
:102150000E0780930D071092100710920F0782E26E
:1021600091E00E943C0B60E671E0CE0107960E9470
:1021700010108091DC019091DD01ECE0CE2ED12C8D
:10218000B6010E942E2216E0189FB001199F700D13
:1021900011246F557D4FCE0101960E9407109E01BC
:1021A000295F3F4F42E050E0BE016F5F7F4FCE019D
:1021B0000D960E942910BE01635F7F4F8EEF96E05F
:1021C0000E942406CE010D960E942110CE01019698
:1021D0000E942110CE0107960E9421108EE191E00D
:1021E0000E943C0B60E671E0CE0107960E94101041
:1021F0008091DC019091DD01B6010E942E22189F92
:10220000B001199F700D1124675A7D4FCE010196C0
:102210000E9407109E01295F3F4F43E050E0BE013E
:102220006F5F7F4FCE010D960E942910BE01635F44
:102230007F4F8EEF96E00E942406CE010D960E94FD
:102240002110CE0101960E942110CE0107960E9416
:102250002110033609F04DC041EAE42E42E0F42E8D
:1022600010E000E056E0C52ED12C64E1A62E7AE005
:10227000B72EC801B6010E942E22A89E9001A99EE9
:10228000300D1124265F3F4F30930E0720930D072A
:10229000B69EC001B79E900D11240D969093100725
:1022A00080930F07B7018EEF96E00E9424060F5F20
:1022B0001F4F86E0E80EF11C0C301105D1F601E04D
:1022C0002BE044E16BE070E087E090E00E940F0AB1
:1022D00062960FB6F894DEBF0FBECDBFDF91CF91EF
:1022E0001F910F91FF90EF90DF90CF90BF90AF9034
:1022F0000895802F612F0E9422222AE0D22E8D9DE8
:10230000B0011124655F7F4F34E1E32E9E9DC00133
:10231000112400E02BE044E107960E940F0A8F2D64
:10232000612F0E9422228D9DB0011124655F7F4F95
:102330009E9DC001112401E02BE044E10796C6CF29
:10234000EF92FF920F931F93CF93DF93EC018B01DA
:10235000198218821B821A821D821C82CB010E9464
:10236000EC1F7C01BC01CE010E94340F811109C019
:10237000CE01DF91CF911F910F91FF90EF900C94C0
:102380005C0FFD82EC82B80188819981DF91CF9149
:102390001F910F91FF90EF900C94E51FEF92FF9229
:1023A0000F931F93CF93DF93CDB7DEB7A4970FB6EC
:1023B000F894DEBF0FBECDBF61E671E0CE014F964F
:1023C0000E94101081E090E090930E0780930D071B
:1023D0001092100710920F0789E191E00E943C0BC8
:1023E0008091DC019091DD010B9662E671E04797E8
:1023F00010F46EE571E0CE0101960E941010CE013E
:1024000001960E94390D811171C18AE091E00E940C
:102410003C0BCE0101960E94211086E191E00E94C2
:102420003C0B60E671E0CE0107960E94101080918F
:10243000DC019091DD012CE0E22EF12CB7010E942D
:102440002E2216E0189FB001199F700D11246F55B0
:102450007D4FCE0101960E9407109E01295F3F4FDC
:1024600042E050E0BE016F5F7F4FCE010D960E94AB
:102470002910BE01635F7F4F8EEF96E00E94240615
:10248000CE010D960E942110CE0101960E942110CE
:10249000CE0107960E94211082E191E00E943C0B40
:1024A00060E671E0CE0107960E9410108091DC0179
:1024B0009091DD01B7010E942E22189FB001199F53
:1024C000700D1124675A7D4FCE0101960E940710AE
:1024D0009E01295F3F4F43E050E0BE016F5F7F4F99
:1024E000CE010D960E942910BE01635F7F4F8EEFD3
:1024F00096E00E942406CE010D960E942110CE0186
:1025000001960E942110CE0107960E94211010E032
:102510003CE0F32E06E060E671E0CE0143960E94B7
:10252000101068E071E0CE0107960E94A011BE0174
:10253000695F7F4F812F0E944A0D6F2D0E942222DA
:10254000909FB00111246F557D4FCE010D960E94D2
:1025500007109E012D5E3F4F43E050E0BE01635FD8
:102560007F4FCE0149960E942910BE01615E7F4FC8
:10257000CE0101960E940710BE01675E7F4FCE011B
:1025800001960E94920FBC01CE014F960E94F00F5F
:10259000CE0101960E942110CE0149960E94211081
:1025A000CE010D960E942110CE0107960E942110A7
:1025B000CE0143960E9421101F5F173009F0ABCF68
:1025C00081E090E090930E0780930D078DE090E0FE
:1025D0009093100780930F07BE01615E7F4F8EEFCF
:1025E00096E00E94240661E671E0CE014F960E94BB
:1025F000E60F10E08CE0F82E06E060E671E0CE0118
:1026000043960E94101066E071E0CE0107960E948A
:10261000A011BE01695F7F4F812F0E944A0D6F2D6F
:102620000E942222909FB00111246F557D4FCE0150
:102630000D960E9407109E012D5E3F4F43E050E033
:10264000BE01635F7F4FCE0149960E942910BE01F3
:10265000615E7F4FCE0101960E940710BE01675E4A
:102660007F4FCE0101960E94920FBC01CE014F9682
:102670000E94F00FCE0101960E942110CE014996D2
:102680000E942110CE010D960E942110CE010796C6
:102690000E942110CE0143960E9421101F5F173027
:1026A00009F0ABCF81E090E090930E0780930D0787
:1026B00087E190E09093100780930F07BE01615E61
:1026C0007F4F8EEF96E00E942406CE014F960E9427
:1026D0002110A4960FB6F894DEBF0FBECDBFDF91D8
:1026E000CF911F910F91FF90EF9008958EE091E0B0
:1026F0008ECEEF92FF920F931F93CF93DF93CDB7C0
:10270000DEB7AA970FB6F894DEBF0FBECDBF61E665
:1027100071E0CE014F960E94101061E671E0CE018B
:1027200085960E94101081E090E090930E078093B0
:102730000D071092100710920F0781E091E00E94A0
:102740003C0B8091DC019091DD010B9662E671E01B
:10275000479710F46EE571E0CE0101960E941010CB
:10276000CE0101960E94390D811113C282EF90E0D3
:102770000E943C0BCE0101960E9421108EEF90E04A
:102780000E943C0B60E671E0CE0107960E9410109B
:102790008091DC019091DD012CE0E22EF12CB7015B
:1027A0000E942E2216E0189FB001199F700D11246F
:1027B0006F557D4FCE0101960E9407109E01295F43
:1027C0003F4F42E050E0BE016F5F7F4FCE010D965C
:1027D0000E942910BE01635F7F4F8EEF96E00E943A
:1027E0002406CE010D960E942110CE0101960E9472
:1027F0002110CE0107960E9421108AEF90E00E94DE
:102800003C0B60E671E0CE0107960E9410108091AB
:10281000DC019091DD01B7010E942E22189FB001CA
:10282000199F700D1124675A7D4FCE0101960E94A9
:1028300007109E01295F3F4F43E050E0BE016F5FEC
:102840007F4FCE010D960E942910BE01635F7F4F1E
:102850008EEF96E00E942406CE010D960E94211074
:10286000CE0101960E942110CE0107960E942110F0
:1028700010E000E020E04EE06AE270E0C8010E9453
:102880001E040F5F1F4F00381105A1F710E09CE0F8
:10289000F92E06E060EF70E0CE0107960E94A011CD
:1028A000BE01695F7F4F812F0E944A0DE82EBE0155
:1028B000615E7F4FCE0101960E9407108E2D6F2D15
:1028C0000E942222909FB0011124675A7D4FCE01B1
:1028D00001960E94920F0E946E0FBC01CE014F968E
:1028E0000E94F00FCE0101960E942110CE010796A2
:1028F0000E94211060E671E0CE0143960E94101004
:102900006EEE70E0CE0107960E94A011BE01695FD5
:102910007F4F812F0E944A0D6F2D0E942222909F8F
:10292000B00111246F557D4FCE010D960E94071006
:102930009E012D5E3F4F43E050E0BE01635F7F4F3D
:10294000CE0149960E942910BE016B5D7F4FCE01DA
:1029500001960E940710BE01675E7F4FCE0101966F
:102960000E94920FBC01CE0185960E94F00FCE010D
:1029700001960E942110CE0149960E942110CE019D
:102980000D960E942110CE0107960E942110CE01C3
:1029900043960E9421101F5F173009F07BCF01E0A2
:1029A00010E01093F7060093F6061093F5060093D7
:1029B000F4068AE290E09093F9068093F806BE014F
:1029C000615E7F4F89EE96E00E94240610930E0709
:1029D00000930D078DE090E09093100780930F0710
:1029E000BE016B5D7F4F8EEF96E00E94240661E68C
:1029F00071E0CE014F960E94E60F61E671E0CE01D4
:102A000085960E94E60F10E08CE0F82E06E06CEE52
:102A100070E0CE0107960E94A011BE01695F7F4F52
:102A2000812F0E944A0DE82EBE01615E7F4FCE01CC
:102A300001960E9407108E2D6F2D0E942222909FDA
:102A4000B0011124675A7D4FCE0101960E94920F6A
:102A50000E946E0FBC01CE014F960E94F00FCE0176
:102A600001960E942110CE0107960E94211060E677
:102A700071E0CE0143960E9410106AEE70E0CE0124
:102A800007960E94A011BE01695F7F4F812F0E94AF
:102A90004A0D6F2D0E942222909FB00111246F5584
:102AA0007D4FCE010D960E9407109E012D5E3F4F77
:102AB00043E050E0BE01635F7F4FCE0149960E9424
:102AC0002910BE016B5D7F4FCE0101960E94071059
:102AD000BE01675E7F4FCE0101960E94920FBC013E
:102AE000CE0185960E94F00FCE0101960E94211022
:102AF000CE0149960E942110CE010D960E94211010
:102B0000CE0107960E942110CE0143960E9421100B
:102B10001F5F173009F07BCF01E010E010930E0724
:102B200000930D0787E190E09093100780930F07C3
:102B3000BE016B5D7F4F8EEF96E00E9424061093DE
:102B4000F7060093F6061093F5060093F40684E367
:102B500090E09093F9068093F806BE01615E7F4F86
:102B600089EE96E00E942406CE0185960E942110EF
:102B7000CE014F960E942110AA960FB6F894DEBFA0
:102B80000FBECDBFDF91CF911F910F91FF90EF90BE
:102B9000089586EF90E0ECCD8F929F92AF92BF9216
:102BA000CF92EF920F931F93CF93DF9300D000D07B
:102BB00000D0CDB7DEB7182F61E671E0CE010196E7
:102BC0000E94101064E671E0CE0101960E94E60FAB
:102BD00080910C01810F9927991F65E070E00E9498
:102BE0002E22182F80930C0120E0E9EEF2E0211153
:102BF0002FEF002421932193219321930394D1F764
:102C00001092100710920F0710920E0710920D07E6
:102C1000843009F47BC05C01AA0CBB1CA80EB91E51
:102C20003EE6832E912C8D819E81A816B90608F070
:102C300068C089819A81009709F463C08A0D9B1D41
:102C4000FC012081CC24C394EE24E39400E050E006
:102C500040E0B4018EEF96E00E94440AFFEFAF1A05
:102C6000BF0A86E0880E911CE0E88E169104D9F622
:102C700021E040E869E070E090E080E00E94D8093F
:102C8000133041F021E040E861E270E090E080E044
:102C90000E94D80989E690E09093F7068093F606A3
:102CA0009093F5068093F40685E090E09093F90602
:102CB0008093F8068091DF01882329F18EE591E069
:102CC0000E94250F80910C01811132C01092DD010C
:102CD0001092DC010E947913CE0101960E9421100E
:102CE00026960FB6F894DEBF0FBECDBFDF91CF9111
:102CF0001F910F91EF90CF90BF90AF909F908F90CA
:102D0000089520E09FCF80E691E0DACF01E020E453
:102D100040E870E060E090E080E00E940F0A2CE361
:102D20004CE762E070E082E090E00E940F0ACACFB8
:102D3000813061F41092DD011092DC010E94CE110D
:102D400060E083E690E00E94480EC6CF823049F4EE
:102D50001092DD011092DC0163E683E60E9491107F
:102D6000EFCF833071F41092DD011092DC0163E645
:102D700083E60E94911060E083E690E00E945C0B85
:102D8000ABCF843009F0A8CF08E010E010930E0715
:102D900000930D078AE090E09093100780930F074F
:102DA00082E08093130781EE90E00E943C0BBB24ED
:102DB000B394B09213078DED90E00E943C0B1093FA
:102DC0000E0700930D078EE190E09093100780931B
:102DD0000F0788ED90E00E943C0B8AEC90E00E9487
:102DE0003C0B10930E0700930D0788E290E0909340
:102DF000100780930F0786EB90E00E943C0B109326
:102E00000E0700930D0782E390E0909310078093E4
:102E10000F078CEA90E00E943C0BB09213075CCF46
:102E20001F920F920FB60F9211248F939F93809150
:102E3000E1009091E100937F9093E10083FF0FC048
:102E40001092E90091E09093EB001092EC0092E375
:102E50009093ED001092F80198E09093F00082FFBB
:102E600022C093E09093E9009091F200992319F029
:102E70009AE39093E8009091D601992341F09091C4
:102E8000D60191509093D601911101C05D9A909115
:102E9000F701992341F09091F70191509093F70138
:102EA000911101C0289A84FF18C08091E2008E7EA3
:102EB00081608093E2008091E1008F7E8093E10049
:102EC0008091D7018E7E80618093D7019F918F91F1
:102ED0000F900FBE0F901F90189580FFF7CF809135
:102EE000E2008E7E80618093E2008091E1008E7E20
:102EF0008093E1008091D7018E7E8160E5CF1F92A3
:102F00000F920FB60F921124CF92DF92EF92FF92A1
:102F10000F931F932F933F934F935F936F937F93E1
:102F20008F939F93AF93BF93EF93FF93CF93DF93D1
:102F3000CDB7DEB76C97DEBFCDBF1092E9008091B0
:102F4000E80083FF25C068E0CE0145960E94170681
:102F500082EF8093E8008D8987FF39C09091E80067
:102F600090FFFCCF982F907609F034C19E894F894D
:102F7000588D2F89F88C911131C0803861F580917E
:102F8000D8018093F1001092F1008EEF8093E80059
:102F90006C960FB6F894DEBF0FBECDBFDF91CF9118
:102FA000FF91EF91BF91AF919F918F917F916F9121
:102FB0005F914F913F912F911F910F91FF90EF9053
:102FC000DF90CF900F900FBE0F901F9018959EEF3F
:102FD0009093E800C7CF1092F100D5CF913059F40B
:102FE0008111D3CF4130510581F68091D8018D7F79
:102FF0008093D801CACF933049F48111C6CF4130B4
:10300000510519F68091D8018260F2CF953041F4D4
:103010008091E80080FFFCCF20682093E300B5CFCB
:10302000963009F0A9C00B8D1C8D22E01092E900AA
:103030001092D4011092D301F2122EC01092D2013C
:103040001092D1010E94E6051F8299E09983FA82CD
:1030500091E09E8390EA98879AEF99872091D30117
:103060003091D401275F3F4F3C832B838D83109297
:10307000E9001092D4011092D3011093D201009371
:10308000D10149E050E0BE016F5F7F4F80E00E94B8
:10309000C0050E94E60579CF1093D2010093D101BB
:1030A0000E944B05DC0112960D911C910115110532
:1030B00009F451C1D801ED91FC910480F581E02D16
:1030C000BE016B5E7F4FC8010995009709F03EC1B4
:1030D000F80100851185EACFF3E0FF120EC08F8959
:1030E000882309F440C0823061F440E867E08CE452
:1030F00097E00E948D05811148CF81E28093EB001B
:1031000047CF813029F440E86BE080E497E0F1CFCD
:10311000833099F70E944B05DC011296ED90FC90EC
:103120008E010F5F1F4F6801E114F10479F0D701A0
:10313000ED91FC910680F781E02DB801C70109955A
:10314000080F111DF701E084F184EECFD8011C9225
:10315000F60101900020E9F73197BF016C197D0954
:1031600040E0C601C6CF6AE277E0FB01449150E03F
:1031700080E80E94C00509CF973009F4BECF98308F
:1031800021F481E08093F10000CF993009F0FDCE69
:10319000837009F0B2CFE6E2F1E081E031E096E33E
:1031A0002191222371F08093E9003093EB00DF013D
:1031B00011972C912093EC009093ED008F5F873056
:1031C00079F78EE78093EA001092EA008F89809366
:1031D000F801DBCE8B8D9C8D1092E9001092D4010A
:1031E0001092D3019093D2018093D101898D8111E6
:1031F00092C08E899D89913A49F4813209F07DCF40
:1032000047E050E064E071E080E0B3CF913209F034
:1032100074CF833269F48F89988DB0E0A0E08093F9
:10322000000190930101A0930201B0930301ADCE80
:10323000803269F48091E80082FFFCCF67E084E08F
:1032400091E00E9417068BEF8093E8009ECE8232B9
:1032500009F09BCE8F8980930B01EEEFFFE78591FC
:1032600094918B3F9C4D51F1E0E0F8E08091040196
:1032700090910501A0910601B0910701803B944017
:10328000A105B105F1F480910B0180FD1AC0EE3F5C
:103290008AE0F80789F587E797E791838083809133
:1032A00060008093D50188E19BE00FB6F894A89563
:1032B000809360000FBE9093600067CEEEEFFAE05F
:1032C000D5CF808191818737974709F05ECEA89549
:1032D000809160008861809360008091D501809327
:1032E0006000EE3F2AE0F20789F08091FE0A90919B
:1032F000FF0A9183808349CE808191818737980727
:1033000051F29093FF0A8093FE0AC5CF1092FF0AF4
:103310001092FE0A3ACE0E944B05DC0112960D91E6
:103320001C910115110509F4E8CED801ED91FC912D
:103330000190F081E02DBE016B5E7F4FC8010995C1
:10334000811123CEF80100851185EBCF18161906DF
:103350000CF41BCED2CEF1E0FF12BECE6EE277E0CF
:1033600004CF1F920F920FB60F9211242F933F9309
:103370008F939F93AF93BF938091C9019091CA019E
:10338000A091CB01B091CC013091C80123E0230F73
:103390002D3758F50196A11DB11D2093C8018093CA
:1033A000C9019093CA01A093CB01B093CC01809145
:1033B000CD019091CE01A091CF01B091D0010196A5
:1033C000A11DB11D8093CD019093CE01A093CF019B
:1033D000B093D001BF91AF919F918F913F912F9169
:1033E0000F900FBE0F901F90189526E8230F02969E
:1033F000A11DB11DD2CF1F920F920FB60F921124B3
:103400002F933F934F935F936F937F938F939F93EC
:10341000AF93BF93EF93FF938091C4019091C50147
:10342000A091C601B091C701892B8A2B8B2B09F47F
:1034300040C08091C30181110BC088B190E48927FD
:1034400088B98091C201882319F088B1805888B961
:103450008091C4019091C501A091C601B091C701AE
:10346000181619061A061B069CF48091C401909147
:10347000C501A091C601B091C7010197A109B10989
:103480008093C4019093C501A093C601B093C70176
:10349000FF91EF91BF91AF919F918F917F916F912C
:1034A0005F914F913F912F910F900FBE0F901F9002
:1034B00018950E94F608ECCF0F931F93CF93DF93DC
:1034C0008C0181E090E00E94F02080FF31C08AE012
:1034D00090E00E94F0209FEF980F9E3F48F522E376
:1034E00030E0D80150963C932E931F9728E330E0AC
:1034F00052963C932E935197CBE0D0E0D801ED91BA
:10350000FC910190F081E02D682FC8010995CE0152
:103510000E94F0202196C131D10581F70E94F0036D
:1035200088EE93E0DF91CF911F910F910C94BA092F
:10353000DF91CF911F910F91089504970C945C1A1D
:10354000E9EFF1E01382128288EE93E0A0E0B0E0B0
:1035500084839583A683B78380E391E091838083FE
:103560008FEF9FEF95878487EEEFF6E0138212824C
:103570001186128680E183871086178215868EE475
:1035800091E0918380838CE591E095838483108A18
:103590001786128A118A81E0838B148A858B168A9A
:1035A0002DEE33E0309358022093570220E030E8AC
:1035B000309356022093550246983E9A47983F9A78
:1035C000E9EEF6E01382128222E431E031832083B7
:1035D00029EE32E03683258320E830E030872783E8
:1035E00020E430E03287218795E0948B838B168628
:1035F0001586108A17861486138681E090E0928BD8
:10360000818B148264E771E081EA92E00E941010DD
:1036100066E771E087EA92E00E94101069E771E0C6
:103620008DEA92E00E9410106BE771E083EB92E06C
:103630000E9410106EE771E089EB92E00E9410107A
:1036400062E771E08FEB92E00E94101060E871E099
:1036500085EC92E00E94101063E871E08BEC92E040
:103660000E94101065E871E081ED92E00E94101058
:1036700068E871E087ED92E00E9410106AE871E05E
:103680008DED92E00E9410106DE871E083EE92E003
:103690000E9410106FE871E089E592E00E9410101E
:1036A00062E971E08FE592E00E94101066E971E036
:1036B00085E692E00E94101069E971E08BE692E0E5
:1036C0000E9410106DE971E081E792E00E941010F5
:1036D00060EA71E087E792E00E94101063EA71E00F
:1036E0008DE792E00E94101067EA71E083E892E0B3
:1036F0000E9410106BEA71E089E892E00E941010BD
:103700006FEA71E08FE892E00E94101062EB71E0C6
:1037100085E992E00E94101066EB71E08BE992E07F
:103720000C941010CF93DF9300D000D000D0CDB711
:10373000DEB7789484B5826084BD84B5816084BD31
:1037400085B5826085BD85B5816085BD80916E003F
:10375000816080936E001092810080918100826070
:1037600080938100809181008160809381008091AD
:1037700080008160809380008091910082608093BE
:1037800091008091910081608093910080919000E0
:103790008160809390008091C10084608093C1001B
:1037A0008091C10082608093C1008091C1008160DE
:1037B0008093C1008091C30081608093C300809199
:1037C000C00082608093C0008091C20081608093BD
:1037D000C20080917A00846080937A0080917A00A0
:1037E000826080937A0080917A00816080937A0071
:1037F00080917A00806880937A001092F80110928C
:10380000D8011092D7018091D70081608093D700B2
:1038100080EA8093D80089B5806189BD89B58260CE
:1038200089BD09B400FEFDCF61E070E080E090E06A
:103830000E9405078091D8008F7C80618093D8001A
:103840008091E000807F8093E0008091E1008E7E97
:103850008093E1008DE08093E200559A209A81ECFC
:1038600080937C0085B1806F85B984B1877E84B9EF
:1038700084B1876E84B95E9A5F988AB1806D8AB987
:10388000769A6E9881B3806F81BB899880B38D7072
:1038900080BB80E58CBD81E08DBD85E090E00E941D
:1038A000BA095F9A85E090E00E94BA095E985C9838
:1038B00004E517E0F80184910E94C7090F5F1F4FCC
:1038C000F7E001361F07B1F75C9A81E88093640046
:1038D000809165008160809365008FEF9FEF9093EA
:1038E00006028093050281E28093090780E00E942E
:1038F000CC150E94F0031092DA011092D90181E0F8
:103900008093D9010E94BD076093E7017093E8019D
:103910008093E9019093EA01B9E6AB2EB12C1CE04B
:10392000512E80910707809308070E94BF0980935A
:1039300007070E94BF09E82EF12C8091E4019091C5
:10394000E501E816F90609F041C028E0E216F104A5
:10395000E9F50E94BD070091E0011091E10120917D
:10396000E2013091E301601B710B820B930B683B0A
:103970007B408105910550F18091DF0191E089271D
:103980008093DF01B092F706A092F606B092F5069A
:10399000A092F406E5E0F0E0F093F906E093F80673
:1039A000882309F478C08EE591E00E94250F0E94DB
:1039B000F00381E08093DE010E94BD076093E00187
:1039C0007093E1018093E2019093E30180910807F5
:1039D00083FF24C08091070783FD20C00E94BD079C
:1039E0000091E0011091E1012091E2013091E301A9
:1039F000601B710B820B930B683B7B40810591052B
:103A000068F48091DE01811109C081E00E94CC152B
:103A1000F092E501E092E4010E94F0038091E4015C
:103A20009091E501E816F90609F414C2E114F104D5
:103A300009F410C21092E6015C9886EA0E94C70958
:103A40005C9A20E4E216F10409F05CC080910C015C
:103A5000811130C08091DC019091DD01019668E117
:103A600070E00E942E229093DD018093DC010E9481
:103A7000791338E0E316F10409F073C00E94BD0722
:103A80006093E0017093E1018093E2019093E30180
:103A90001092DE0166C009E610E020E044E065E037
:103AA00070E0C8010E941E040F5F1F4F0D36110504
:103AB000A1F77DCF813081F48091DC019091DD010F
:103AC000019668E170E00E942E229093DD018093C0
:103AD000DC010E94CE11CDCF8250823050F6209171
:103AE000DC013091DD01C90101966CE070E00E94BB
:103AF0002E228093DC019093DD01682F822F0E949B
:103B00009110B7CF30E2E316F104E9F480910C0193
:103B1000811106C08091DC019091DD0147969FCF15
:103B2000813031F48091DC019091DD014796C9CF5D
:103B30008250823008F09DCF2091DC013091DD0170
:103B4000C9010B96D2CF80E8E816F10409F08DC1C7
:103B500080910C018150823020F481E090E00E943D
:103B6000CB0DF092E501E092E4010E94BD07609365
:103B7000E7017093E8018093E9019093EA010E94C4
:103B8000F0030E94BD070091E7011091E801209128
:103B9000E9013091EA01601B710B820B930B6131DB
:103BA000774281059105C0F08091E60191E0892777
:103BB0008093E601882309F456C187EA5C980E9445
:103BC000C7095C9A0E94BD076093E7017093E80102
:103BD0008093E9019093EA0180E090E0892B09F459
:103BE000A0CE0E94000098CE80910C0181508230BE
:103BF00008F0B7CF8FEF9FEFB2CF813009F0D3C07D
:103C00008091DC019091DD010B966EE571E04797A4
:103C100010F062E671E0CE0101960E941010BE0124
:103C20006F5F7F4F80E00E944A0D652D0E94222227
:103C3000E92FF0E0EE0FFF1F8F010F59184FCE0153
:103C400001960E942110F801259034908091DF01A7
:103C5000811102C00E94D209912C812CD12C80911B
:103C6000DC019091DD010B966EE571E0479710F055
:103C700062E671E0CE0101960E941010BE016F5FF6
:103C80007F4F8D2D0E944A0D652D0E942222092F03
:103C900010E0000F111F0F59184FCE0101960E941E
:103CA0002110F801859194918215930514F4880FE1
:103CB000991F68EE73E00E949E096090DC0170908D
:103CC000DD0165E170E02CE06216710414F46BE034
:103CD00070E001E02BE042E1C4010E940F0A3BE0EA
:103CE000630E711C6EE571E087E16816710410F0D7
:103CF00062E671E0CE0101960E941010BE016F5F76
:103D00007F4F8D2D0E944A0D652D0E94222261E079
:103D1000892F90E00E94480ECE0101960E9421104A
:103D20000E94F0038091DB018111FCCF6090DC01E7
:103D30007090DD0165E170E0ECE06E16710414F442
:103D40006BE070E000E02BE042E1C4010E940F0A4A
:103D5000FBE06F0E711C6EE571E027E162167104E5
:103D600010F062E671E0CE0101960E941010BE01D3
:103D70006F5F7F4F8D2D0E944A0D652D0E9422227C
:103D800060E0892F90E00E94480ECE0101960E94CB
:103D900021100E94F003D39432E1830E911C87E03E
:103DA000D8125DCFF6C0823059F58091DF018111C4
:103DB00002C00E94D209E091DC01F091DD01EE0F1A
:103DC000FF1FEF59F84F8591949160ED77E00E94C5
:103DD0009E0961E08091DC019091DD010E94480E16
:103DE0000E94F0038091DB018111FCCF60E08091A3
:103DF000DC019091DD010E94480E0E94F003C9C0D1
:103E0000833009F0AECE8091DF01811102C00E94A3
:103E1000D209E091DC01F091DD01EE0FFF1FEF59B7
:103E2000F84F8591949160ED77E00E949E09009192
:103E3000DC011091DD0161E0C8010E945C0B0E9471
:103E4000F0038091DB018111FCCF60E0C8010E948A
:103E50005C0BD3CF0E94BF09811193CE1092E50174
:103E60001092E4018ECE86EAA9CEF0E1EF16F104BD
:103E700009F4BACE24E0E216F10409F0FACD8091FB
:103E80000C018111BACE8091DC019091DD010B967D
:103E90006EE571E0479710F062E671E0CE010196A1
:103EA0000E941010BE016F5F7F4F80E00E944A0D9C
:103EB000652D0E942222E92FF0E0EE0FFF1F8F01F7
:103EC0000F59184FCE0101960E942110F8018590DC
:103ED00094908091DF01811102C00E94D209312C9F
:103EE000D12CC12C8091DC019091DD010B966EE507
:103EF00071E0479710F062E671E0CE0101960E94F2
:103F00001010BE016F5F7F4F832D0E944A0D652DFB
:103F10000E942222092F10E0000F111F0F59184F85
:103F2000CE0101960E942110F80185919491881587
:103F3000990514F4880F991F68EE73E00E949E099A
:103F40008091DC019091DD016BE0662E712C0C9765
:103F50001CF055E1652E712C01E02BE042E1B3012C
:103F6000C6010E940F0A0E94F0038091DB018111BB
:103F7000FCCF00E02BE042E1B301C6010E940F0A32
:103F80000E94F003E2E1CE0ED11C3394F7E03F1221
:103F9000A9CF0E94CD09E5CDCF93DF93C1EAD2E04E
:103FA0002697CE010E94211082E0C935D807C1F7BB
:103FB000C9EED2E02697CE010E94211082E0C13ADC
:103FC000D807C1F7DF91CF910895FB01DC0105907F
:103FD0000D920020E1F70895FC0105900020E9F71B
:103FE000809590958E0F9F1F0895E89409C097FBC8
:103FF0003EF490958095709561957F4F8F4F9F4FC0
:104000009923A9F0F92F96E9BB279395F695879503
:1040100077956795B795F111F8CFFAF4BB0F11F4C6
:1040200060FF1BC06F5F7F4F8F4F9F4F16C088236D
:1040300011F096E911C0772321F09EE8872F762FA3
:1040400005C0662371F096E8862F70E060E02AF0E4
:104050009A95660F771F881FDAF7880F96958795D0
:1040600097F908950E9445200C94B6200E94A8203C
:1040700038F00E94AF2020F0952311F00C949F207F
:104080000C94A52011240C94EA200E94C72070F300
:10409000959FC1F3950F50E0551F629FF001729FED
:1040A000BB27F00DB11D639FAA27F00DB11DAA1FFC
:1040B000649F6627B00DA11D661F829F2227B00D49
:1040C000A11D621F739FB00DA11D621F839FA00DD4
:1040D000611D221F749F3327A00D611D231F849F24
:1040E000600D211D822F762F6A2F11249F5750407B
:1040F0009AF0F1F088234AF0EE0FFF1FBB1F661FF6
:10410000771F881F91505040A9F79E3F510580F0BE
:104110000C949F200C94EA205F3FE4F3983ED4F384
:10412000869577956795B795F795E7959F5FC1F762
:10413000FE2B880F911D9695879597F9089597F90D
:104140009F6780E870E060E008959FEF80EC08953D
:1041500000240A9416161706180609060895002466
:104160000A9412161306140605060895092E0394E0
:10417000000C11F4882352F0BB0F40F4BF2B11F454
:1041800060FF04C06F5F7F4F8F4F9F4F089557FDB3
:104190009058440F551F59F05F3F71F04795880FB5
:1041A00097FB991F61F09F3F79F08795089512164C
:1041B00013061406551FF2CF4695F1DF08C01616F8
:1041C00017061806991FF1CF8695710561050894A9
:1041D0000895E894BB2766277727CB0197F90895C0
:1041E000F999FECF92BD81BDF89A992780B50895BF
:1041F000052E97FB1EF400940E940F2157FD07D057
:104200000E944E2107FC03D04EF40C940F215095D0
:104210004095309521953F4F4F4F5F4F08959095B2
:104220008095709561957F4F8F4F9F4F08952F9286
:104230003F924F925F926F927F928F929F92AF9236
:10424000BF92CF92DF92EF92FF920F931F93CF9383
:10425000DF93CDB7DEB7CA1BDB0B0FB6F894DEBF1A
:104260000FBECDBF09942A88398848885F846E8440
:104270007D848C849B84AA84B984C884DF80EE808A
:10428000FD800C811B81AA81B981CE0FD11D0FB693
:10429000F894DEBF0FBECDBFED010895A1E21A2E46
:1042A000AA1BBB1BFD010DC0AA1FBB1FEE1FFF1FDA
:1042B000A217B307E407F50720F0A21BB30BE40B2A
:1042C000F50B661F771F881F991F1A9469F7609571
:1042D0007095809590959B01AC01BD01CF0108952B
:1042E000A29FB001B39FC001A39F700D811D112437
:1042F000911DB29F700D811D1124911D089550587C
:10430000BB27AA270E9497210C94B6200E94A820C0
:1043100038F00E94AF2020F039F49F3F19F426F4C2
:104320000C94A5200EF4E095E7FB0C949F20E92F58
:104330000E94C72058F3BA176207730784079507CE
:1043400020F079F4A6F50C94E9200EF4E0950B2EFC
:10435000BA2FA02D0B01B90190010C01CA01A001D7
:104360001124FF27591B99F0593F50F4503E68F132
:104370001A16F040A22F232F342F4427585FF3CF73
:10438000469537952795A795F0405395C9F77EF444
:104390001F16BA0B620B730B840BBAF09150A1F08D
:1043A000FF0FBB1F661F771F881FC2F70EC0BA0F13
:1043B000621F731F841F48F4879577956795B7959B
:1043C000F7959E3F08F0B0CF9395880F08F0992796
:1043D000EE0F9795879508950E94F3216894B11187
:1043E0000C94EA2008950E94CF2088F09F5798F0FF
:1043F000B92F9927B751B0F0E1F0660F771F881FEA
:10440000991F1AF0BA95C9F714C0B13091F00E9403
:10441000E920B1E008950C94E920672F782F8827D0
:10442000B85F39F0B93FCCF3869577956795B3952A
:10443000D9F73EF490958095709561957F4F8F4F99
:104440009F4F0895991B79E004C0991F961708F0B3
:10445000961B881F7A95C9F78095089597FB072EBC
:1044600016F4009407D077FD09D00E94422207FC81
:1044700005D03EF4909581959F4F08957095619574
:104480007F4F0895AA1BBB1B51E107C0AA1FBB1F8A
:10449000A617B70710F0A61BB70B881F991F5A95D0
:1044A000A9F780959095BC01CD010895EE0FFF1FEF
:1044B0000590F491E02D09940F931F93CF93DF9310
:1044C0008230910510F482E090E0E0911707F091BE
:1044D000180730E020E0B0E0A0E0309799F4211513
:1044E000310509F44AC0281B390B24303105D8F5B1
:1044F0008A819B816115710589F1FB019383828318
:10450000FE0111C040815181028113814817590772
:10451000E0F04817590799F4109761F012960C9340
:10452000129713961C933296CF01DF91CF911F9172
:104530000F9108950093170710931807F4CF2115D2
:10454000310551F04217530738F0A901DB019A01F8
:10455000BD01DF01F801C1CFEF01F9CF909318073A
:1045600080931707CDCFFE01E20FF31F8193919344
:104570002250310939832883D7CF209115073091F4
:104580001607232B41F420910F0130911001309335
:1045900016072093150720910D0130910E0121156A
:1045A000310541F42DB73EB74091110150911201F0
:1045B000241B350BE0911507F0911607E217F3075E
:1045C000A0F42E1B3F0B2817390778F0AC014E5F83
:1045D0005F4F2417350748F04E0F5F1F50931607A3
:1045E00040931507819391939FCFF0E0E0E09CCF3B
:1045F000CF93DF930097E9F0FC0132971382128288
:10460000A0911707B0911807ED0130E020E0109756
:10461000A1F420813181820F931F209115073091E1
:1046200016072817390709F061C0F0931607E093C1
:104630001507DF91CF910895EA01CE17DF07E8F55E
:104640004A815B819E0141155105B1F7E901FB8368
:10465000EA8349915991C40FD51FEC17FD0761F406
:10466000808191810296840F951FE9019983888347
:10467000828193819B838A83F0E0E0E012968D91A2
:104680009C9113970097B9F52D913C911197CD010D
:104690000296820F931F2091150730911607281755
:1046A000390739F6309751F510921807109217070D
:1046B000B0931607A0931507BCCFD383C283408164
:1046C0005181840F951FC817D90761F44E5F5F4F62
:1046D00088819981480F591F518340838A819B812A
:1046E000938382832115310509F0B0CFF093180729
:1046F000E09317079ECFFD01DC01C0CF1382128229
:10470000D7CFB0E0A0E0E7E8F3E20C9419218C01E8
:10471000009751F4CB010E945C228C01C801CDB7F7
:10472000DEB7E0E10C943521FC01E60FF71F9C0198
:1047300022503109E217F30708F49DC0D901CD9149
:10474000DC911197C617D70798F0C530D10530F323
:10475000CE0104978617970708F3C61BD70B22973D
:10476000C193D1936D937C93CF010E94F822D6CF51
:104770005B01AC1ABD0A4C018C0E9D1EA09117075F
:10478000B0911807512C412CF12CE12C109731F5E8
:1047900080911507909116078815990509F05CC05E
:1047A0004616570608F058C080910D0190910E01F1
:1047B000009741F48DB79EB74091110150911201BD
:1047C000841B950BE817F90708F055C0F0931607FE
:1047D000E0931507F90171836083A0CF8D919C91BF
:1047E000119712966C90129713967C901397A815B8
:1047F000B90559F56C0142E0C40ED11CCA14DB04A2
:1048000020F1AC014A195B09DA011296159780F084
:104810006282738251834083D9016D937C93E1144A
:10482000F10471F0D7011396FC93EE93129776CFB3
:1048300022968C0F9D1FF90191838083F301EFCFA6
:10484000F0931807E093170769CF4816590608F444
:104850002C017D01D3019ACFCB010E945C227C0107
:10486000009749F0AE01B8010E944324C8010E949C
:10487000F822870153CF10E000E050CF81E090E0B4
:10488000F8940C945C24FB01DC0102C001900D92B1
:1048900041505040D8F70895FB01DC018D91019003
:1048A00080190110D9F3990B0895FB01DC010190E7
:1048B0000D920020E1F7089513E0C2ECD3E004C0AC
:1048C000FE010E9456222196C33CD107C9F7F894F5
:0248D000FFCF18
:1048D200FFFFFFFF00E100000000000001000019DF
:1048E2000780000002010202010209020700000221
:1048F200020102020200C1808100000000000000EB
:104902005F06380780067506C6068406A206000002
:10491200000037083206590B580B00000000F00A5D
:104922003206590B580B5C1AFCFF00009D1A4D0011
:1049320020006D0041654E4B45594D414E50454E4C
:10494200494E46004300446200440045620045006F
:104952004762004700416200410042620042004457
:104962006F00526562005265004D6962004D690038
:10497200466100536F6200536F6C004C6162004CE1
:0A49820061005369620053690000F0
:00000001FF
